:0E01C800080E00000000000000000208000009
:10016500200033D20012019C8F0CE50B650CFF5566
:100175000CF50AE50CF45FF516850C0BE50AB404DD
:1001850015E50945086009631001E4F508F509223C
:070195007508007509012245
:1001B300538E7F5389F0758A18758CFCC28DD28C4F
:0501C300D2AFD2A92219
:03000B0002000EE2
:10000E00C0E0C0F0C083C082C0D075D000C000C0B8
:10001E0001C002C003C004C005C006C0070517E535
:10002E001775F0C88485F017E51775F00A84E5F0AA
:10003E007002C200050DE50DB40803750D00740EB7
:10004E00250DF8E6FD7C00AF0D12012AE5094508E5
:10005E0060230509E50970020508FFAE08BE031509
:10006E00BFE812750800750900E50C6005630E0106
:10007E008003630F01D007D006D005D004D003D083
:10008E0002D001D000D0D0D082D083D0F0D0E032D8
:080003001201B312016580FB3C
:10019C00E4FF20B3027F0420B2027F0520B1027F6E
:0601AC000620B0027F07EF
:0101B200222A
:0601D6000118000119FFF1
:10012A00ED4C600FA8077401088002C333D8FC4263
:10013A0018800EA8077401088002C333D8FCF45251
:10014A0018E51865196013E518F4F580E5A0541F41
:0A015A004480F5A053A01F8518197A
:010164002278
:0300000002009E5D
:0C009E00787FE4F6D8FD7581200200E5B3
:1000AA00020003E493A3F8E493A34003F68001F269
:1000BA0008DFF48029E493A3F85407240CC8C33357
:1000CA00C4540F4420C8834004F456800146F6DF26
:1000DA00E4800B01020408102040809001C8E47EED
:1000EA00019360BCA3FF543F30E509541FFEE4931B
:1000FA00A360010ECF54C025E060A840B8E493A3E2
:10010A00FAE493A3F8E493A3C8C582C8CAC583CA0C
:10011A00F0A3C8C582C8CAC583CADFE9DEE780BEC4
:0101DC000022
:00000001FF
