:0B08E400C0F9A4B0999282F88090BF88
:10080000EFB40800505E90080DF828287302082500
:1008100002082C02083302083A02084102084A0280
:10082000085302085CC2A7C2A6C2A522C2A7C2A6DC
:10083000D2A522C2A7D2A6C2A522C2A7D2A6D2A55D
:1008400022E5A0541F4480F5A022E5A0541F44A037
:10085000F5A022E5A0541F44C0F5A022E5A0541F36
:0508600044E0F5A022B8
:1008A400AE077F06120800AF057401A8070880028E
:0E08B400C333D8FCF5807F071208008E802227
:1008C200EF1FAC0670011E4C600B007D027CC7DC82
:0508D200FEDDFC80EBDF
:0108D70022FE
:10086500E4FBE4FAEA9008E493FFAD031208A47FE1
:10087500E87E031208C20ABA0BEA0BBB08E4E4FBE4
:100885007F061208007580FF0F120800EB9008E440
:0E08950093F5807FE87E031208C20BBB0BE2D6
:0108A3002232
:0508EF0012086580FB0A
:030000000208D81B
:0C08D800787FE4F6D8FD7581070208EF78
:00000001FF
