:10006100EFB40800504A90006EF828287302008609
:1000710002008A02008E02009202009602009D0296
:1000810000A40200ABC2A7800EC2A78011C2A78044
:1000910014C2A78017D2A7C2A6C2A522D2A7C2A600
:1000A100D2A522D2A7D2A6C2A522D2A7D2A6D2A5D4
:0100B100222C
:0600B200F5807FE87E03EB
:1000B800EF1FAC0670011E4C600B007D027CC7DC94
:0500C800FEDDFC80EBF1
:0100CD002210
:0900DA007F04120061E4F58022AC
:0600EB001200618D80226D
:100003007F041200617B01A80374FF088002C333DD
:10001300D8FC1200B20BBB09EE7F0512006175809C
:10002300107FA07E0F1200B8E4F5807F04120061F8
:100033007B01A80374FF088002C333D8FCF41200C9
:10004300B20BBB09ED7F051200617580407FD07E46
:0E005300071200B8E4F5807FE87E030200B8D3
:0800E3001200DA12000380FB99
:030000000200CE2D
:0C00CE00787FE4F6D8FD7581070200E39E
:00000001FF
