:0A006C00EF1FAC0670011E4C600F80
:0D00760000750A02750BC7D50BFDD50AFAFF
:0300830080E722F1
:10001600EF24FB601314601914601F24037023E59A
:10002600A0541F4480F5A022E5A0541F44A0F5A0CB
:1000360022E5A0541F44C0F5A022E5A0541F44E0C9
:03004600F5A02200
:100086007F04120016C2807FE87E0312006CD280C5
:070096007FE87E0302006C0D
:0700A500D28AD2AAD2AF22D9
:030013000200499F
:10004900C0E0C0D075D000C004C006C007C2877F19
:10005900887E1312006CD287D007D006D004D0D086
:03006900D0E032B2
:08009D001200A512008680FB91
:03000000020003F8
:0C000300787FE4F6D8FD75810B02009DAB
:00000001FF
