:1009DF002578000000000000000100080502000952
:0609EF000603000A0704E4
:10085B0008380A0A0A0A0A0A0A0A084500000000B0
:10086B0000000000082F0000000000000000032B18
:06087B000000000137003F
:10061D00E52E7070752E011206928F2AE52A652936
:10062D00552AF527852A2924FB601D04702E0528DF
:10063D00E52864037026F52875400A75410A754250
:10064D000A75430AF54D8014E528B4010F75400A6B
:10065D0075410A75420A75430AE4F54DE52790097F
:10066D00E293FF601FE528B4011A852B22852C2308
:10067D00E54DC39404500DEF14FFAE4D054D744080
:05068D002EF8A6072273
:10036A00E4F50AF50BE5246003020463752401FB36
:10037A007A00792B1208DCE52814603814604E24C0
:10038A00026003020463E52BC4540FF538E52B54CD
:10039A000FF539753A0BE52CC4540FF53BE52C548F
:1003AA000FF53C753D0BE52DC4540FF53EE52D5474
:1003BA000FF53F2275380C75390A753A0A753B0AEA
:1003CA00753C0A753D0A753E0A85373F2275380D18
:1003DA0075390A753A0AE522C4540FF53BE52254E9
:1003EA000FF53C753D0BE523C4540FF53EE5235448
:1003FA000FF53F7B007A007922751001E4FD12089F
:10040A00297B007A0079237510017D01120829E5FC
:10041A000A850B09750FFF7510097511DFF5127B37
:10042A00007A00792512006A750FFF751009751197
:10043A00DF8509127B007A00792612006A7B007A2E
:10044A000079257510017D021208297B007A00794E
:09045A00267510017D031208292A
:010463002276
:10090400E52870047F0180027F008F2FE528B40161
:10091400047F0180027F008F30E528B402047F0148
:0709240080027F008F3122E9
:100A0B00538E7F5389F0758A18758CFCC28DD28CEE
:050A1B00D2A9D2AF22B8
:03000B000205A04B
:1005A000C0E0C0F0C083C082C0D075D000C000C021
:1005B00001C002C003C004C005C006C007052EE587
:1005C0002EB40A03752E000524E52464F470027429
:1005D00001602F0544E544B40803754400743825D0
:1005E00044F8E6FD7C0074452544F8E6FB7A00AF4C
:1005F00044120747742F2544F8E6FD7C00AF4412EF
:100600000785D007D006D005D004D003D002D00192
:0D061000D000D0D0D082D083D0F0D0E03226
:100993007580FFE5A0541F4480F5A0E4F580E5A031
:0A09A300541F44A0F5A053A01F222A
:1008B400120993120A0B7B007A00792B1207C07B72
:1008C400007A007937750C017D0212070512061DA6
:0808D40012036A12090480F509
:100A3400E4FEC297EF1392A3EFC313FFD2970EBE47
:020A440008F0B8
:010A4600228D
:100A2000C29300C29700D29300120A34AF05120A93
:040A300034C2932217
:1007F500E4FDC29300C29700D29300120A34E4FFCD
:10080500C297EDC313FD30A303430580D2970FBFF5
:1008150008EEC29300C29700D29700C2A300D2A3EC
:0308250000AF051C
:0108280022AD
:0607C0008B088A09890A7A
:1007C600E4FD7F8E120A20E4FCEC25E0FFC374846E
:1007D6009FFFAB08AA09A90A8C8275830012047DC3
:0F07E600FD120A200CBC03E17D807F0E020A2069
:0608DC008B0C8A0D890E51
:1008E200E4FCEC25E0FFC374859FFF1207F5AB0C17
:1008F200AA0DA90E8C82758300EF1204BC0CBC03F6
:01090200E113
:0109030022D1
:0409AD00D2A07F0550
:1009B100000000000000000000000000000000AE88
:0609C100071FEE70EB229F
:0F0A4700D2A11209ADC2A17F051209B1C2A0222E
:0C0A5600C2A11209ADD2A17F050209B1B6
:02088800AD07BA
:10088A00E4FCC2A07F051209B1ED30E704D2A180D1
:10089A0002C2A17F051209B1D2A0ED25E0FD7F05B4
:0908AA001209B10CBC08DBC2A06C
:0108B3002222
:10097600E4FC1209ADED25E0FD30A103430501C2FB
:0C098600A07F051209B10CBC08E8AF0509
:010992002242
:10095200AB05120A477FA0120888120964AF03127E
:02096200088803
:100964001209ADA2A1E433FDC2A07F051209B1AF03
:01097400057D
:01097500225F
:1009C700C2A0EF24FF92A17F051209B11209ADC29F
:0809D700A0D2A17F050209B1C5
:100829008B0C8A0D890E120952AF101510EF601F3B
:10083900AB0C050EE50EAA0D7002050D14F9120494
:1008490064FF1208881209647FC81209B180DA02AC
:020859000A563D
:100705008B088A09890A120952120A477FA1120821
:1007150088120964AF0C150CEF6024120976AB083A
:10072500050AE50AAA097002050914F9EF1204AAD7
:10073500E50C6004E4FF80027F011209C780D50241
:020745000A5652
:10069200E4FFC2C4D2C2D2B5D2B420B3027F0420D6
:1006A200B2027F0520B1027F0620B0027F07D2C4CA
:1006B200C2C2D2B5D2B420B3027F0820B2027F09EF
:1006C20020B1027F0A20B0027F0BD2C4D2C2C2B5CF
:1006D200D2B420B3027F0C20B2027F0D20B1027F80
:1006E2000E20B0027F0FD2C4D2C2D2B5C2B420B3A0
:1006F200027F1020B2027F1120B1027F1220B002CD
:020702007F1363
:0107040022D2
:1009F500C0F9A4B0999282F88090FFBFC686010223
:060A0500040810204080EF
:100747007580FFE5A0541F44E0F5A0EF900A0393DE
:10075700F580E5A0541F44C0F5A053A01F74F52DE4
:10076700F58274093CF583E493F580EB4A60035303
:0E077700807FE5A0541F44E0F5A053A01F2290
:06088100014E00014FFFD3
:10078500ED4C600FA8077401088002C333D8FC4202
:100795004E800EA8077401088002C333D8FCF452BA
:1007A5004EE54E654F6013E54EF4F580E5A0541F08
:0A07B5004480F5A053A01F854E4FAD
:0107BF002217
:03000000020514E2
:0C051400787FE4F6D8FD75814F02055B8E
:10046400BB010689828A83E0225002E722BBFE0296
:09047400E32289828A83E49322C9
:10047D00BB010CE58229F582E5833AF583E0225034
:10048D0006E92582F8E622BBFE06E92582F8E2227E
:0D049D00E58229F582E5833AF583E4932298
:1004AA00BB010689828A83F0225002F722BBFE0131
:0204BA00F3222B
:1004BC00F8BB010DE58229F582E5833AF583E8F076
:1004CC00225006E92582C8F622BBFE05E92582C822
:0204DC00F2220A
:10000E00E51B240FF8E6051B22780C300702780F4B
:10001E00E475F0011204DE0204642000EB7F2ED2A0
:10002E00008018EF540F2490D43440D4FF30040BCA
:10003E00EF24BFB41A0050032461FFE51C600215C3
:10004E001C051FE51F7002051E30070D780CE475A8
:10005E00F0011204DEEF0204AA02092B7403D20788
:10006E008003E4C207F51B8B0C8A0D890EE4F51C88
:10007E00F51EF51FE51C60077F2012004980F575FF
:10008E001DFFC201C200C202C203C205C206C208DF
:10009E00120017FF700D3007057F0012005AAF1FB8
:1000AE00AE1E22B4255FC2D5C204120017FF24D0A3
:1000BE00B40A00501A75F00A781C30D50508B6FF40
:1000CE000106C6A426F620D5047002D20380D924D8
:1000DE00CFB41A00EF5004C2E5D20402025AD20184
:1000EE0080C6D20080C0D20280BCD2D580BAD205E2
:1000FE0080B47F201200492002077401B51C004015
:10010E00F112000EFF120049020082D208D20680C0
:10011E009512000EFB12000EFA12000EF94A4B70E9
:10012E0006792B7A037BFF20022EE51C602A7E00C7
:10013E008E8275830012047D60060EEE651D70F0D2
:10014E00C2D5EBC0E0EAC0E0E9C0E0EE1202A1D0F9
:10015E00E0F9D0E0FAD0E0FB120464FF60AAEBC035
:10016E00E0EAC0E0E9C0E0120049D0E02401F9D095
:10017E00E03400FAD0E0FBE51D0460DCD51DD9802B
:10018E00877BFF7A02799DD202809C79108002795A
:10019E0008C206C2088008D2D5790A8004790AC23C
:1001AE00D5E51D047002F51DE4FAFDFEFF12000EEA
:1001BE00FC7B0820011312000EFD7B1030000A128A
:1001CE00000EFE12000EFF7B20EC3382D592D5502E
:1001DE0013C3E43000069FFFE49EFEE42001039D5E
:1001EE00FDE49CFCE4CBF8C201EC700CCFCECDCC80
:1001FE00E824F8F870F38017C3EF33FFEE33FEED0B
:10020E0033FDEC33FCEB33FB994002FB0FD8E9EBEB
:10021E00300105F8D0E0C448B201C0E00AEC4D4E02
:10022E004F78207B0070C2EAB51D0040BCC0E012C2
:10023E0002A3D0F0D0E0200104C4C0E0C4B201C0DB
:10024E00F0120032D0F0D5F0EB0200821204EE0173
:10025E001F5301995800F04C00EC42019D4F01A52F
:0F026E004401A54901054301AB55018F46018F9E
:10027D0045018F47034B5000F42D00F82E011B2B29
:10028D0000FC2301192003342A00B4480000011397
:10029D003F3F3F00790AA2D5200314300509B9105C
:1002AD00020404B9080104A2D5200602500104205D
:1002BD0002689202B51C005034C0E07F2030031953
:1002CD007F30A20272067205500F1202FAC202C2EC
:1002DD0006C205C2087F30800F300503E9C0E01269
:1002ED000049300503D0E0F9D0E0B51CCC3005173E
:1002FD007F30B9100C1200497F583004077F788089
:10030D0003B908031200493002057F2D0200497F11
:10031D00202008F87F2B2006F322920280CF286E32
:10032D00756C6C2900D20112000E3001F8C20178F3
:10033D001C30D50108F60200B42D50434958120067
:10034D000E2403B405004001E49003469312003AD5
:0D035D00743A12003AD203751C0402019993
:100520000208B4E493A3F8E493A34003F68001F235
:1005300008DFF48029E493A3F85407240CC8C333DC
:10054000C4540F4420C8834004F456800146F6DFAB
:10055000E4800B010204081020408090085BE47ED8
:10056000019360BCA3FF543F30E509541FFEE493A0
:10057000A360010ECF54C025E060A840B8E493A367
:10058000FAE493A3F8E493A3C8C582C8CAC583CA92
:10059000F0A3C8C582C8CAC583CADFE9DEE780BE4A
:010887000070
:1004DE00FAE6FB0808E6F925F0F618E6CA3AF6221F
:1004EE00D083D082F8E4937012740193700DA3A39D
:1004FE0093F8740193F5828883E4737402936860B1
:06050E00EFA3A3A380DFB0
:10092B00EFB40A07740D120936740A309811A8999E
:10093B00B8130CC2983098FDA899C298B811F6302C
:07094B0099FDC299F5992204
:00000001FF
