:1007D70000000000000001000805020009060300F0
:0307E7000A0704FA
:10062100083A0A0A0A0A0A0A0A0A084800000000E7
:100631000000000008310000000000000000032D50
:0A064100230959013900C100C1016D
:1002F600E53060030203807530011203FE8F2AE5A4
:100306002A6529552AF527852A2924FB60250470A4
:100316003C0528E52864037034F52875420A7543C0
:100326000A75440A75450AF550F52BF52CC200C22C
:1003360001801AE528B4011575420A75430A754409
:100346000A75450AE4F550F52BF52CC200E5279011
:1003560007D793FF6024E528B4011F200008852DE8
:1003660021852E22D200E550C39404500DEF14FFD0
:0B037600AE50055074422EF8A607227E
:0100030022DA
:10000E00E4F512F513E5236003020188752301FB65
:10001E007A00792D12067EE52864027045E521C42A
:10002E00540F75F00AA4FFE521540F2FF524E52295
:10003E00C4540F75F00AA4FFE522540F2FF525AD19
:10004E0024E4FF120730AD257F01120730E52BF5B2
:10005E0026852C46AD267F02120730AD467F031251
:10006E000730E5281460391470030201622402601F
:10007E0003020188E52DC4540FF53AE52D540FF512
:10008E003B753C0BE52EC4540FF53DE52E540FF594
:10009E003E753F0BE52FC4540FF540E52F0201844A
:1000AE00753A0C753B0A753C0A753D0AE4FBEBFD8F
:1000BE003395E0FCC3ED95507480F86C98501AAEF1
:1000CE0012AF137C007D0A12020374422BF8E62F46
:1000DE00F513EC3EF5120B80D5E550C39404500495
:1000EE007F0A800BAE12AF137C037DE81202158FD0
:1000FE003EE550C3940350047F0A8014AE12AF1332
:10010E007C007D641202157C007D0A120215AF057B
:10011E008F3FE550C3940250047F0A8014AE12AF95
:10012E00137C007D0A1202157C007D0A120215AFA7
:10013E00058F40E550C3940150047F0A800DAE1226
:10014E00AF137C007D0A120215AF058F4185122B6D
:10015E0085132C22753A0D753B0A753C0AE521C4B0
:10016E00540FF53DE521540FF53E753F0BE522C4C6
:0A017E00540FF540E522540FF5413F
:010188002254
:1006A600E52870047F0180027F008F31E528B401C0
:1006B600047F0180027F008F32E528B402047F01A7
:0706C60080027F008F332248
:1007AE00538E7F5389F0758A18758CFCC28DD28C4E
:0507BE00D2A9D2AF2218
:03000B000203816C
:10038100C0E0C0F0C083C082C0D075D000C000C042
:1003910001C002C003C004C005C006C0070530E5A6
:1003A10030B40A037530000523E52364F470027448
:1003B10001602F0547E547B40803754700743A25E6
:1003C10047F8E6FD7C0074482547F8E6FB7A00AF64
:1003D1004712050D74312547F8E6FD7C00AF471241
:1003E100054BD007D006D005D004D003D002D001F0
:0D03F100D000D0D0D082D083D0F0D0E03248
:10074C007580FFE5A0541F4480F5A0E4F580E5A07A
:0A075C00541F44A0F5A053A01F2273
:1004710012074C7B007A00792D120586E4FF1206E3
:10048100F1EF75F00A84C454F0FFC007E4FF1206CF
:10049100F1EF75F00A84D0E025F0F5217F01120615
:1004A100F1EF75F00A84C454F0FFC0077F01120612
:1004B100F1EF75F00A84D0E025F0F5221207AE12B3
:0A04C10002F612000E1206A680F5E6
:1007EA00E4FEC297EF1392A3EFC313FFD2970EBE94
:0207FA0008F005
:0107FC0022DA
:1007C300C29300C29700D293001207EAAF05120743
:0407D300EAC29322C1
:1005BB00E4FDC29300C29700D293001207EAE4FF56
:1005CB00C297EDC313FD30A303430580D2970FBF32
:1005DB0008EEC29300C29700D29700C2A300D2A329
:0305EB0000AF0559
:0105EE0022EA
:060586008B128A13891498
:10058C00E4FD7F8E1207C3E4FCEC25E0FFC374840A
:10059C009FFFAB12AA13A9148C827583001201A2BF
:0F05AC00FD1207C30CBC03E17D807F0E0207C365
:06067E008B148A15891699
:10068400E4FCEC25E0FFC374859FFF1205BBAB14AB
:10069400AA15A9168C82758300EF1201E10CBC0324
:0106A400E174
:0106A5002232
:04076600D2A07F0599
:10076A00000000000000000000000000000000AED1
:06077A00071FEE70EB22E8
:0F080F00D2A1120766C2A17F0512076AC2A022FA
:0C081E00C2A1120766D2A17F0502076A82
:02065200AD07F2
:10065400E4FCC2A07F0512076AED30E704D2A18052
:1006640002C2A17F0512076AD2A0ED25E0FD7F0535
:0906740012076A0CBC08DBC2A0ED
:01067D00225A
:10071300E4FC120766ED25E0FD30A103430501C2A9
:0C072300A07F0512076A0CBC08E8AF05B7
:01072F0022A7
:1006CD00AB0512080F7FA01206521206DFAF031200
:0206DD000652C3
:1006DF00120766A2A1E433FDC2A07F0512076AAF1D
:0106EF000505
:0106F00022E7
:10078000C2A0EF24FF92A17F0512076A120766C27A
:08079000A0D2A17F0502076A57
:1005EF008B088A09890A1206CDAF0C150CEF601F14
:1005FF00AB08050AE50AAA097002050914F91201E8
:10060F0089FF1206521206DF7FC812076A80DA02CC
:02061F00081EB3
:1004CB008B0D8A0E890F1206CD12080F7FA1120613
:1004DB00521206DFAF111511EF6024120713AB0D8B
:1004EB00050FE50FAA0E7002050E14F9EF1201CFDE
:1004FB00E5116004E4FF80027F0112078080D502C2
:02050B00081EC8
:1007FD00AD071FED600BE4FEEEC3947050F20E805A
:01080D00F7F3
:01080E0022C7
:10073000AB05AA0712080F7FA01206521206DFAF00
:0C074000021206D47F0A1207FD02081EF8
:0206F100AB0755
:1006F300E4FD1206CF12080F7FA11206521206DF85
:0F070300120713AD077F0112078012081EAF0502
:0107120022C4
:1003FE00E4FFC2C4D2C2D2B5D2B420B3027F04206D
:10040E00B2027F0520B1027F0620B0027F07D2C460
:10041E00C2C2D2B5D2B420B3027F0820B2027F0985
:10042E0020B1027F0A20B0027F0BD2C4D2C2C2B565
:10043E00D2B420B3027F0C20B2027F0D20B1027F16
:10044E000E20B0027F0FD2C4D2C2D2B5C2B420B336
:10045E00027F1020B2027F1120B1027F1220B00263
:02046E007F13FA
:010470002269
:10079800C0F9A4B0999282F88090FFBFC686010282
:0607A8000408102040804F
:10050D007580FFE5A0541F44E0F5A0EF9007A6937A
:10051D00F580E5A0541F44C0F5A053A01F74982D7D
:10052D00F58274073CF583E493F580EB4A60035341
:0E053D00807FE5A0541F44E0F5A053A01F22CC
:06064B000117000118FF79
:10054B00ED4C600FA8077401088002C333D8FC423E
:10055B0017800EA8077401088002C333D8FCF4522D
:10056B0017E51765186013E517F4F580E5A0541F20
:0A057B004480F5A053A01F85171857
:010585002253
:0300000002026A8F
:0C026A00787FE4F6D8FD7581500202B1E7
:10018900BB010689828A83E0225002E722BBFE0274
:09019900E32289828A83E49322A7
:1001A200BB010CE58229F582E5833AF583E0225012
:1001B20006E92582F8E622BBFE06E92582F8E2225C
:0D01C200E58229F582E5833AF583E4932276
:1001CF00BB010689828A83F0225002F722BBFE010F
:0201DF00F32209
:1001E100F8BB010DE58229F582E5833AF583E8F054
:1001F100225006E92582C8F622BBFE05E92582C800
:02020100F222E7
:10020300EF8DF0A4A8F0CF8CF0A428CE8DF0A42E0F
:02021300FE22C9
:10021500BC000BBE0029EF8DF084FFADF022E4CCCD
:10022500F875F008EF2FFFEE33FEEC33FCEE9DEC96
:10023500984005FCEE9DFE0FD5F0E9E4CEFD22EDDC
:10024500F8F5F0EE8420D21CFEADF075F008EF2F26
:10025500FFED33FD4007985006D5F0F222C398FD17
:050265000FD5F0EA22B4
:10027600020471E493A3F8E493A34003F68001F229
:1002860008DFF48029E493A3F85407240CC8C33389
:10029600C4540F4420C8834004F456800146F6DF58
:1002A600E4800B0102040810204080900621E47EC1
:1002B600019360BCA3FF543F30E509541FFEE4934D
:1002C600A360010ECF54C025E060A840B8E493A314
:1002D600FAE493A3F8E493A3C8C582C8CAC583CA3F
:1002E600F0A3C8C582C8CAC583CADFE9DEE780BEF7
:0106510000A8
:00000001FF
