:1007F50008630A0A0A0A0A0A0A0A086D00000000C4
:1008050000000000085A0000000000000000C18040
:10038000E559600302046D7559011206718F58E535
:100390005865575558F54B85585724FB600E24F97E
:1003A00060132408600302046DC2002230000302BF
:1003B000046DD20022E54C704EAF78AE77AD76ACCE
:1003C00075120283EF75F00A842430F527EF75F07B
:1003D0000A84E5F02430F52875292EE4FFFE7D20FF
:1003E0007C41AB78AA77A976A87512002612028301
:1003F0007C007D0A12031DED2430F52A752B437B0A
:10040000007A0079228063AF7CAE7BAD7AAC791242
:100410000283EF75F00A84E5F02430F539753A2E41
:10042000E4FFFE7D207C41AB7CAA7BA97AA87912EF
:100430000026120283EF75F00A84E5F02430F53BC4
:10044000E4FFFE7DC87C42AB7CAA7BA97AA8791226
:1004500000261202837C007D0A12031DED2430F574
:0E0460003C753D567B007A0079311208A722C8
:10046E00E521600302054A7521011207BE8F788EC1
:10047E00778D768C757F03120854AC07E412024F09
:10048E00E4FBFA794C784212012F8F7C8E7B8D7AA9
:10049E008C79E54C14604B04600302054A75630BBE
:1004AE00756401AF78AE77AD76AC75120283EF75D9
:1004BE00F00A84F568EF75F00A8485F069E4FFFEB2
:1004CE007D207C41AB78AA77A976A87512002612FA
:1004DE0002837C007D0A12031D8D6A757301E4F59B
:1004EE00722275630B756402AF7CAE7BAD7AAC790C
:1004FE00120283EF75F00A8485F068E4FFFE7D201A
:10050E007C41AB7CAA7BA97AA879120026120283C1
:10051E00EF75F00A8485F069E4FFFE7DC87C42AB7E
:10052E007CAA7BA97AA8791200261202837C007D10
:0D053E000A12031D8D6AE4F5737572012227
:1006E400E4FFFE7DE07C41AB78AA77A976A8751279
:1006F40001CC40047F018002E4FF1208EF7466FF1E
:10070400FEFD7C40AB7CAA7BA97AA8791201CC605F
:100714000640047F018002E4FF1208CCE54C70041B
:100724007F0180027F008F5AE54CB401047F018071
:0E073400027F008F5B300005E4F55CF54A2281
:1009F900E5627013756201E54DB44103E4F54CE518
:080A09004DB44203754C0122BB
:10000E00538E7F5389F0758A18758CFCC28DD28CF5
:05001E00D2A9D2AF22BF
:03000B0002054BA0
:10054B00C0E0C0F0C083C082C0D075D000C000C076
:10055B0001C002C003C004C005C006C0070559E5B1
:10056B0059B40A037559000521AF217E00BE01065F
:10057B00BFF403752100056CE56CB40803756C00C2
:10058B000562E562B4C8037562007463256CF8E616
:10059B00FD7C00746D256CF8E6FB7A00AF6C1207DE
:1005AB0042745A256CF8E6FD7C00AF6C1207832071
:1005BB00000D054AE54AB46406635CFF754A00D03A
:1005CB0007D006D005D004D003D002D001D000D084
:0A05DB00D0D082D083D0F0D0E032FF
:030023000209349B
:10093400C0E0C0D075D000C00030980C30000774FF
:0F0944004D256BF8A699C298D000D0D0D0E032E4
:100971007580FFE5A0541F4480F5A053A01FE4F546
:0D09810080E5A0541F44A0F5A053A01F2244
:0C0A78007F237E337DB6DDFEDEFCDFFA5E
:010A8400224F
:100912001209711207BE7F03120854120A781200DC
:100922000E120A2912038012046E1206E41209F949
:0209320080F251
:0409AB00D2A07F0552
:1009AF00000000000000000000000000000000AE8A
:0609BF00071FEE70EB22A1
:0F0A6900D2A11209ABC2A17F051209AFC2A02210
:0C0A8500C2A11209ABD2A17F050209AF8B
:02082800AD071A
:10082A00E4FCC2A07F051209AFED30E704D2A18033
:10083A0002C2A17F051209AFD2A0ED25E0FD7F0516
:09084A001209AF0CBC08DBC2A0CE
:010853002282
:10098E00E4FC1209ABED25E0FD30A103430501C2E5
:0C099E00A07F051209AF0CBC08E8AF05F3
:0109AA00222A
:030A400012082871
:100A43001209ABA2A1E433FDC2A07F051209AFAF27
:010A5300059D
:010A5400227F
:100A1100C2A0EF24FF92A17F051209AF1209ABC258
:080A2100A0D2A17F050209AF7C
:02085400AB07F0
:10085600E4FD120A697F90120A40AF03120A4012A1
:100866000A697F91120828120A4312098EAD077F82
:0908760001120A11120A85AF05F6
:01087F002256
:0409C5007F057E002C
:1009C900EF1FAA0670011E4A600BE4FDEDC3940CEB
:0509D90050EE0D80F757
:0109DE0022F6
:02095300A907F2
:10095500E4FBC294E91392941209C5D294E9C31336
:0C096500F90BBB08ED7F057E000209C9FC
:1009DF00E4FBC294ECC313FCD29430940343048021
:0909EF001209C50BBB08EBAF04B3
:0109F80022DC
:10088000C202D2947F0C7E001209C9C2947F507EAE
:10089000001209C9D2947F0A7E001209C9A294925B
:0608A000021209C5A202CC
:0108A600222F
:1007BE00E4F9FF1208807FCC1209537F44120953CB
:1007CE001208807FCC1209537FBE1209531209DF23
:1007DE00A9071209DFEFAD01FCEC12024AE4FBFAA5
:0707EE007980783D0200262E
:100A2900759850438E01438E0475D7C775D6FE431A
:070A39008E10D2ACD2AF22F7
:080003008F993099FDC299228A
:1008A7008B0E8A0F8910AB0EAA0FA91012030460D2
:1008B700130510E5107002050F14F9120304FF1257
:0508C700000380E222A5
:10067100E4FFC2C4D2C2D2B5D2B420B3027F0420F7
:10068100B2027F0520B1027F0620B0027F07D2C4EB
:10069100C2C2D2B5D2B420B3027F0820B2027F0910
:1006A10020B1027F0A20B0027F0BD2C4D2C2C2B5F0
:1006B100D2B420B3027F0C20B2027F0D20B1027FA1
:1006C1000E20B0027F0FD2C4D2C2D2B5C2B420B3C1
:1006D100027F1020B2027F1120B1027F1220B002EE
:0206E1007F1385
:0106E30022F4
:100815000108000109FF010A00010BFF010C00019D
:020825000DFFC5
:10078300ED4C600FA8077401088002C333D8FC4204
:1007930008800EA8077401088002C333D8FCF45202
:1007A30008E50865096013E508F4F580E5A0541F22
:0A07B3004480F5A053A01F8508093B
:0107BD002219
:1008CC00EF6005430A408003530ABFE50A650B60DD
:1008DC0011850A80E5A0541F44A0F5A053A01F85E4
:0208EC000A0BF5
:0108EE0022E7
:1008EF00EF6005430C108003530CEFE50C650D60B2
:1008FF0011850C80E5A0541F44A0F5A053A01F85BF
:02090F000C0DCD
:0109110022C3
:100A5500C0F9A4B0999282F88090FFC10102040800
:040A6500102040809D
:100742007580FFE5A0540F44E0F5A053A01FEF9081
:100752000A6193F580E5A0540F44C0F5A053A01F91
:1007620074552DF582740A3CF583E493F580EB4AC7
:10077200600353807FE5A0540F44E0F5A053A01F0F
:010782002254
:10002600EC4D6011E8497017ED33EC3304600DE4D4
:10003600FCFFFEFD22E933E8330470F80202EF12FA
:1000460002BA58046009E4CC2481500628500902FB
:1000560002F92840030202F6C0E0EB4A7044B98078
:1000660006D0E0FB0202E5EF4E701CBD8008EBFFF8
:10007600EAFEE9FD80EBE98DF0A4FEE5F002010F52
:10008600E9CDF9EAFEEBFFEF89F0A4FCE5F0CE89B5
:10009600F0A42EFFE435F0CD89F0A42DFEE435F072
:1000A6008067EF4E7005BD80D780C3EF8BF0A4ACA0
:1000B600F0EE8BF0A42CFCE435F0F8EF8AF0A42CDB
:1000C600E5F038FCE433CB8DF0A42CFCE5F03BF8EE
:1000D600EE8AF0A42CFCE5F038F8E433CF89F0A4DE
:1000E6002CFCE5F038CF3400CE89F0A42FFFE5F0E4
:1000F6003EFEE433C98DF0A42EFEE5F039CD8AF03C
:10010600A42FFFE5F03EFEE43DFD33D0E0FB5007B3
:100116000BBB000F0202F9EC2CFCEF33FFEE33FEB3
:06012600ED33FD0202D1E1
:10012C000202F9EC5D046005E8590470030202EF69
:10013C001202BA580460F6EC4860F2EC7004FDFE52
:10014C00FF22C860DB2481C85009C39860025006A6
:10015C000202F69850CAF582E9294B4A7005AB8227
:10016C000202E575F0007C1A7880C3EF9BEE9AEDE5
:10017C0099400DC3EF9BFFEE9AFEED99FDE842F01E
:10018C00DC23ACF0D0E0FFD0E0FED0E0FDAB822071
:10019C00E7101BEB60BAEC2CFCEF33FFEE33FEEDFB
:1001AC0033FD0202D1E803F830E705C0F075F0002A
:1001BC00EF2FFFEE33FEED33FD40B830E7C280AADF
:1001CC0074F8CC6480CCC86480C8F58204604FC3DA
:1001DC00EB9FF5F0EA9E42F0E99D42F0E89C45F079
:1001EC00603C501DE5825FFFE582D313CB5BCBF403
:1001FC002B5582FB50280ABA002409B9002008802C
:10020C001DE5825BFBE582D313CF5FCFF4C3132FC5
:10021C005582FF50090EBE00050DBD00010CC3EB4D
:10022C009FF5F0EA9E42F0E99D42F0E89C45F060B3
:09023C0007CC4820E701B3EC22D5
:1002450075F020800E75F010800575F0087D007E34
:10025500007F003392D530D503120372EC33401082
:10026500EF33FFEE33FEED33FDEC33FCD5F0ED223D
:0E027500E5F0247EA2D513CC92E7CDCEFF2279
:10028300EDD2E7CD33EC3392D524814006E4FFFE73
:10029300FDFC22FCE4CFCECDCC24E0501174FF80D2
:1002A300EDC3CC13CCCD13CDCE13CECF13CF04706F
:0702B300F030D5DE020372FA
:1002BA00E9D2E7C933E833F892D5EDD2E7CD33EC8A
:0702CA0033FC5002B2D52203
:1002D100EC30E7100FBF000C0EBE00080DBD00048E
:1002E1000BEB6014A2D5EB13FCED92E7FD2274FF3A
:1002F100FCFDFEFF22E480F8A2D574FF13FC7D8093
:03030100E480EFA6
:030000000205E511
:0C05E500787FE4F6D8FD75817C02062CBE
:10030400BB010689828A83E0225002E722BBFE02F7
:09031400E32289828A83E493222A
:10031D00BC000BBE0029EF8DF084FFADF022E4CCC4
:10032D00F875F008EF2FFFEE33FEEC33FCEE9DEC8D
:10033D00984005FCEE9DFE0FD5F0E9E4CEFD22EDD3
:10034D00F8F5F0EE8420D21CFEADF075F008EF2F1D
:10035D00FFED33FD4007985006D5F0F222C398FD0E
:05036D000FD5F0EA22AB
:0E037200C3E49FFFE49EFEE49DFDE49CFC229C
:1005F100020912E493A3F8E493A34003F68001F205
:1006010008DFF48029E493A3F85407240CC8C3330A
:10061100C4540F4420C8834004F456800146F6DFD9
:10062100E4800B01020408102040809007F5E47E6D
:10063100019360BCA3FF543F30E509541FFEE493CE
:10064100A360010ECF54C025E060A840B8E493A395
:10065100FAE493A3F8E493A3C8C582C8CAC583CAC0
:10066100F0A3C8C582C8CAC583CADFE9DEE780BE78
:0108270000D0
:00000001FF
