:0B040E00C0F9A4B0999282F88090BF62
:06041900010F00010E00BE
:1003C700EF1FAC0670011E4C600A7D0C7CA9DCFE99
:0403D700DDFC80ECDD
:0103DB0022FF
:0B040300EF1FAC0670011E4C70F622CB
:10026000EF24FC601114601714601D146023240730
:10027000702753A01F22E5A0541F4480F5A022E55B
:10028000A0541F44A0F5A022E5A0541F44C0F5A02F
:0A02900022E5A0541F44E0F5A0226F
:1002F800AE077F06120260AF05A8077401088002E6
:10030800C333D8FCF5807F071202608E807F017EA0
:08031800001203C77580FF22EB
:10000300E50FD394C84016E50FD394FF500F7F0438
:100013001202607580FEE4FF1202600F22E50FD327
:1000230094964017E50FD394C850107F04120260D2
:100033007580FCE4FF1202607F0222E50FD3946413
:100043004017E50FD3949650107F04120260758019
:10005300F0E4FF1202607F0322E50FD3946450049F
:100063007F0180027F00E50FD3943240047E01803C
:10007300027E00EE5F60107F041202607580C0E4B0
:10008300FF1202607F0422E50FD394004016E50FB0
:10009300D39432500F7F04120260E4F580FF120202
:0700A300607F05227F0022AF
:10013600900418E493FFE4FD1202F8120003EF9016
:10014600040E93FF7D011202F8900418E493FF7DDC
:10015600021202F8E50F75F0648490040E93FF7D99
:10016600051202F8E50F75F00A8475F00A84E5F0C9
:1001760093FF7D061202F8E50F75F00A84E5F09309
:06018600FF7D070202F8F4
:1001D90020B3207F647E0012040320B3167B007ACB
:1001E90000790F750D01E4FD12022320B3051201F8
:1001F9003680F820B2237F647E0012040320B219EE
:100209007B007A007908750D01E4FD12018C20B29A
:090219000885080F12013680F57A
:0102220022B9
:100363007F041202607580FFE4FF1202607F0112B6
:0C03730003208F0F1201361201D980F117
:0403EB00D2A07F0518
:0803EF0000AE071FEE70F922B9
:0F03DC00D2A11203EBC2A17F051203EFC2A02230
:0C03F700C2A11203EBD2A17F050203EFAC
:10039A00C2A0A20092A17F051203EF1203EBC2A032
:0703AA00D2A17F050203EF61
:0A037F00AB071203DC7F901202A10D
:100389001203EBA2A19200C2A07F051203EFA20003
:010399002241
:07029A00AB051203DC7FA09D
:0202A100AD07A7
:1002A300E4FCC2A07F051203EFED30E704D2A18086
:1002B30002C2A17F051203EFD2A0ED25E0FD7F0569
:0902C3001203EF0CBC08DBC2A021
:0102CC00220F
:10034600E4FC1203EBED25E0FD30A103430501C2F9
:0C035600A07F051203EF0CBC08E8AF0507
:010362002278
:1003200012037FAF031202A11203891203DC7F9133
:100330001202A1120389120346AD07D20012039ADA
:050340001203F7AF05F8
:010345002295
:1003B10012037F7F401202A1120389AF031202A12F
:0603C1001203890203F79C
:100223008B098A0A890B12029A120389AF031202FD
:10023300A1120389AF0D150DEF601FAB09050BE587
:100243000BAA0A7002050A14F91202CDFF1202A1C9
:0D0253001203897FC81203EF80DA0203F75F
:10018C008B098A0A890B12029A120389AF03120295
:10019C00A11203891203DC7FA11202A1120389AF01
:1001AC000D150DEF6024120346AB09050BE50BAAE8
:1001BC000A7002050A14F9EF1202E6E50D6004C29A
:0D01CC00008002D20012039A80D50203F7D2
:030000000200AA51
:0C00AA00787FE4F6D8FD7581200200F19B
:1002CD00BB010689828A83E0225002E722BBFE022F
:0902DD00E32289828A83E4932262
:1002E600BB010689828A83F0225002F722BBFE01F7
:0202F600F322F1
:1000B600020363E493A3F8E493A34003F68001F2FA
:1000C60008DFF48029E493A3F85407240CC8C3334B
:1000D600C4540F4420C8834004F456800146F6DF1A
:1000E600E4800B0102040810204080900419E47E8D
:1000F600019360BCA3FF543F30E509541FFEE4930F
:10010600A360010ECF54C025E060A840B8E493A3D5
:10011600FAE493A3F8E493A3C8C582C8CAC583CA00
:10012600F0A3C8C582C8CAC583CADFE9DEE780BEB8
:01041F0000DC
:00000001FF
