:10041C0008340A0A0A0A0A0A0A0A084200000000FA
:10042C0000000000082A000000000000000001335A
:10043C001E01321401221E012314012500C10004E7
:0A044C003D00000000012700C1017F
:1001F300E52960030202B575290112067E8F28E501
:100203002665285528F52485282624FB60391460A3
:100213003C14606C240360030202B50525E525B494
:10022300021CE533C39532400A853322853223C24B
:10023300018008852233852332C201E4F525E525B3
:100243006401706EC20022A200B3920022E525640D
:1002530001705F20001A0532E532D395334003D293
:100263000122E532B46406753263D20122C201224F
:100273000533E533B46406753363D20122C2012228
:10028300E5256401702C2000101532E532B4FF0619
:10029300E4F532D20122C201221533E533C395328C
:1002A3005003D20122E533B4FF06E4F533D2012231
:0302B300C2012263
:1003C200E52170557521011205148F408E3F8D3E37
:1003D2008C3D1201528F27E52514601804703A757E
:1003E200340C75370A75380AE52775F00A84F53A30
:1003F200E527801E75340DE53375F00A84F537E57F
:100402003375F00A8485F038E53275F00A84F53ADE
:0A041200E53275F00A8485F03B2204
:10049E00E527D3953340047F0180027F008F2AE544
:1004AE0027C39532400BE527D3953350047F018047
:1004BE00027F008F2BE527C3953250047F01800207
:0B04CE007F008F2CA201E433F52D22EB
:10059E00E527D3953340047FCC8014E527C39532ED
:1005AE00400BE527D3953350047F9980027F661266
:0305BE00063322DF
:1006C100538E7F5389F0758A18758CFCC28DD28C3C
:0506D100D2A9D2AF2206
:03000B00020342AB
:10034200C0E0C0F0C083C082C0D075D000C000C081
:1003520001C002C003C004C005C006C0070529E5EC
:1003620029B40A037529000521AF217E00BE0106CA
:10037200BFF4037521000541E541B408037541004E
:1003820074342541F8E6FD7C0074422541F8E6FB11
:100392007A00AF4112045D742A2541F8E6FD7C0023
:1003A200AF411204D9D007D006D005D004D003D073
:1003B20002D001D000D0D0D082D083D0F0D0E032B1
:1005DF007580FFE5A0541F4480F5A053A01FE4F5DC
:0D05EF0080E5A0541F44A0F5A053A01F22DA
:0C06F9007F207E857D57DDFEDEFCDFFAF1
:0107050022D1
:100619001205DF1205141206F91206C11201F312AE
:0A06290003C212049E12059E80F227
:04070600D2A07F05F9
:08070A0000AE071FEE70F9229A
:0F06EA00D2A1120706C2A17F0512070AC2A022E1
:0C071200C2A1120706D2A17F0502070A4F
:10066700C2A0A20292A17F0512070A120706C2A022
:07067700D2A17F0502070A72
:0306D60012054BBF
:1006D900120706A2A19203C2A07F0512070AA2036C
:0106E90022EE
:02054B00AD07FA
:10054D00E4FCC2A07F0512070AED30E704D2A180BA
:10055D0002C2A17F0512070AD2A0ED25E0FD7F059D
:09056D0012070A0CBC08DBC2A055
:010576002262
:1005FC00E4FC120706ED25E0FD30A103430501C222
:0C060C00A07F0512070A0CBC08E8AF052F
:0106180022BF
:10063300AB071206EA7F901206D67F401206D6AFAA
:0A0643000312054B1206D90207123C
:040695007F057E005F
:100699007C007D0C1201D3EF1FAC0670011E4C705B
:0206A900F62237
:0205C100AB0786
:1005C300E4FAC294EB139294120695D294EBC313FC
:0C05D300FB0ABA08ED7F057E00020699C5
:10064D00E4FAC294EBC313FBD294309403430380BA
:09065D001206950ABA08EBAF037E
:010666002271
:10057700C203D2947F0C7E00120699C2947F507EEC
:1005870000120699D2947F0A7E00120699A29492CD
:0605970003120695A20309
:01059D00223B
:10051400E4F9FF1205777FCC1205C17F441205C1AF
:100524001205777FCC1205C17FBE1205C112064D9C
:10053400A90712064DEFAD01FCEC120119E4FBFA18
:070544007980783D02000EF2
:10067E00E4FF20B3027F0420B2027F0520B1027F87
:06068E000620B0027F0708
:010694002243
:1006AB00C0F9A4B0999282F88090FFBFC68C01026A
:0606BB000408102040803D
:10045D007580FFE5A0541F44E0F5A053A01FEF9059
:10046D0006B993F580E5A0541F44C0F5A053A01F15
:10047D0074AB2DF58274063CF583E493F580EB4A5D
:10048D00600353807FE5A0541F44E0F5A053A01FE7
:01049D00223C
:060456000108000109FF8E
:1004D900ED4C600FA8077401088002C333D8FC42B1
:1004E90008800EA8077401088002C333D8FCF452AF
:1004F90008E50865096013E508F4F580E5A0541FCF
:0A0509004480F5A053A01F850809E7
:0105130022C5
:10000E00EC4D6011E8497017ED33EC3304600DE4EC
:10001E00FCFFFEFD22E933E8330470F80201BE1244
:10002E00018958046009E4CC248150062850090245
:10003E0001C82840030201C5C0E0EB4A7044B980F4
:10004E0006D0E0FB0201B4EF4E701CBD8008EBFF42
:10005E00EAFEE9FD80EBE98DF0A4FEE5F00200F783
:10006E00E9CDF9EAFEEBFFEF89F0A4FCE5F0CE89CD
:10007E00F0A42EFFE435F0CD89F0A42DFEE435F08A
:10008E008067EF4E7005BD80D780C3EF8BF0A4ACB8
:10009E00F0EE8BF0A42CFCE435F0F8EF8AF0A42CF3
:1000AE00E5F038FCE433CB8DF0A42CFCE5F03BF806
:1000BE00EE8AF0A42CFCE5F038F8E433CF89F0A4F6
:1000CE002CFCE5F038CF3400CE89F0A42FFFE5F0FC
:1000DE003EFEE433C98DF0A42EFEE5F039CD8AF054
:1000EE00A42FFFE5F03EFEE43DFD33D0E0FB5007CC
:1000FE000BBB000F0201C8EC2CFCEF33FFEE33FEFE
:06010E00ED33FD0201A02B
:1001140075F020800E75F010800575F0087D007E66
:10012400007F003392D530D5031201E5EC33401043
:10013400EF33FFEE33FEED33FDEC33FCD5F0ED226F
:0E014400E5F0247EA2D513CC92E7CDCEFF22AB
:10015200EDD2E7CD33EC3392D524814006E4FFFEA5
:10016200FDFC22FCE4CFCECDCC24E0501174FF8004
:10017200EDC3CC13CCCD13CDCE13CECF13CF0470A1
:07018200F030D5DE0201E5BB
:10018900E9D2E7C933E833F892D5EDD2E7CD33ECBC
:0701990033FC5002B2D52235
:1001A000EC30E7100FBF000C0EBE00080DBD0004C0
:1001B0000BEB6014A2D5EB13FCED92E7FD2274FF6C
:1001C000FCFDFEFF22E480F8A2D574FF13FC7D80C5
:0301D000E480EFD9
:030000000202B643
:0C02B600787FE4F6D8FD7581490202FD56
:1001D300EF8DF0A4A8F0CF8CF0A428CE8DF0A42E40
:0201E300FE22FA
:0E01E500C3E49FFFE49EFEE49DFDE49CFC222B
:1002C200020619E493A3F8E493A34003F68001F233
:1002D20008DFF48029E493A3F85407240CC8C3333D
:1002E200C4540F4420C8834004F456800146F6DF0C
:1002F200E4800B010204081020408090041CE47E7C
:10030200019360BCA3FF543F30E509541FFEE49300
:10031200A360010ECF54C025E060A840B8E493A3C7
:10032200FAE493A3F8E493A3C8C582C8CAC583CAF2
:10033200F0A3C8C582C8CAC583CADFE9DEE780BEAA
:01045C00009F
:00000001FF
