:1005B70008210A0A0A0A0A0A0A0A0849000000006A
:1005C700000000000148000839000000000000009A
:1005D700000241000002360000012F00C100044460
:0405E7000000000010
:10062B00E538702B7538011207178F35E5346535B2
:10063B00FF5535F52EE535F45FF543853534E52E5D
:10064B00B4040C052FE52FC394034003E4F52F22CC
:0405F4008E0E8F0FC9
:1005F8007B07E50F450E6013AE0EAF0F7C007D0A3A
:1006080012028374212BF8A605800674212BF87634
:100618000AAE0EAF0F7C007D0A1202838E0E8F0F7A
:02062800DBD025
:01062A0022AD
:0D0773002000047F4180027F431206872290
:1002E600E52960030203D97529011207738F2CAC27
:1002F60041AD42E41201C9A804A905AA06AB07E468
:10030600FFFE7D807C3F1201278F478E468D458CF0
:10031600447F007E247D747C49AB47AA46A945A844
:100326004412001E1202028E2A8F2BAC2CE41201FC
:10033600CEE4FBFA794C78421201278F338E328D48
:10034600318C30E52F1460161460202402600302FD
:1003560003D975210CE4F54EAF42AE41800A7521F2
:100366000DE4F54EAF2BAE2A0205F475210E75226B
:100376000B2000047F0180027F038F2375240A75FA
:10038600250AAF33AE32AD31AC30120202EF75F052
:100396000A8485F026E4FFFE7D207C41AB33AA3239
:1003A600A931A83012001E120202EF75F00A8485E8
:1003B600F027E4FFFE7DC87C42AB33AA32A931A800
:1003C6003012001E1202027C007D0A1202838D2862
:0403D600754E01223D
:10074000538E7F5389F0438905E4F58AF58CC28D79
:03075000D28C2226
:10070200538EBF53890F758B18758DFCC28FD28E95
:05071200D2ABD2AF22C2
:03001B000203DA03
:1003DA00C0E0C0F0C083C082C0D075D000C000C0E9
:0D03EA0001C002C003C004C005C006C0076A
:1003F700750C00750D000538E538B4140375380021
:100407000529AF297E00BE0106BFF4037529000543
:1004170048E548B4080375480074212548F8E6FD07
:100427007C0074492548F8E6FB7A00AF4812057648
:1004370074392548F8E6FD7C00AF4812051D0537DD
:10044700E53770020536FFAE36BE0323BFE820C28C
:100457008C753600753700AF8C750C008F0DE50D68
:0F046700AD8AF541EDF542758A00758C00D28C97
:10047600D007D006D005D004D003D002D001D000DA
:0B048600D0D0D082D083D0F0D0E03284
:1006B1007580FFE5A0541F4480F5A053A01FE4F509
:0D06C10080E5A0541F44A0F5A053A01F2207
:100753001206B112070212074012062B1202E6809C
:01076300F89D
:1007170020B3027F0420B2027F0520B1027F0620AA
:04072700B0027F0796
:01072B0022AB
:10000300C0F9A4B0999282F88090FFBF8EC8C10155
:0700130002040810204080E8
:100576007580FFE5A0541F44E0F5A053A01FEF903F
:10058600001293F580E5A0541F44C0F5A053A01FA8
:1005960074032DF58274003CF583E493F580EB4AF1
:1005A600600353807FE5A0541F44E0F5A053A01FCD
:0105B6002222
:0805EB0002080000020A00FFF3
:10051D00ED4C60177E007401A807088005C333CE2B
:10052D0033CED8F94209EE4208801B7E007401A833
:10053D0007088005C333CE33CED8F9F4FFEEF4FEB1
:10054D00EF5209EE5208E509650B7004E508650ADE
:10055D006016E509F4F580E5A0541F4480F5A0531D
:08056D00A01F85080A85090B97
:010575002263
:04078000D2A07F057F
:0807840000AE071FEE70F92220
:0F076400D2A1120780C2A17F05120784C2A02272
:0C078C00C2A1120780D2A17F05020784E1
:1006EB00C2A0A20192A17F05120784120780C2A0AB
:0706FB00D2A17F0502078474
:03072C0012065B57
:10072F00120780A2A19201C2A07F05120784A20125
:01073F002297
:02065B00AD07E9
:10065D00E4FCC2A07F05120784ED30E704D2A1802F
:10066D0002C2A17F05120784D2A0ED25E0FD7F0512
:09067D001207840CBC08DBC2A0CA
:010686002251
:1006CE00E4FC120780ED25E0FD30A103430501C2D5
:0C06DE00A07F051207840CBC08E8AF05E3
:0106EA0022ED
:02068700AB07BF
:100689001207647F9012072CAF0312072C1207641C
:100699007F9112065B12072F1206CEAD07D2011207
:0706A90006EB12078CAF0500
:0106B0002227
:10001E00EC4D6011E8497017ED33EC3304600DE4DC
:10002E00FCFFFEFD22E933E8330470F802026E1283
:10003E00023958046009E4CC248150062850090284
:10004E000278284003020275C0E0EB4A7044B98082
:10005E0006D0E0FB020264EF4E701CBD8008EBFF81
:10006E00EAFEE9FD80EBE98DF0A4FEE5F002010762
:10007E00E9CDF9EAFEEBFFEF89F0A4FCE5F0CE89BD
:10008E00F0A42EFFE435F0CD89F0A42DFEE435F07A
:10009E008067EF4E7005BD80D780C3EF8BF0A4ACA8
:1000AE00F0EE8BF0A42CFCE435F0F8EF8AF0A42CE3
:1000BE00E5F038FCE433CB8DF0A42CFCE5F03BF8F6
:1000CE00EE8AF0A42CFCE5F038F8E433CF89F0A4E6
:1000DE002CFCE5F038CF3400CE89F0A42FFFE5F0EC
:1000EE003EFEE433C98DF0A42EFEE5F039CD8AF044
:1000FE00A42FFFE5F03EFEE43DFD33D0E0FB5007BC
:10010E000BBB000F020278EC2CFCEF33FFEE33FE3C
:06011E00ED33FD0202506A
:10012400020278EC5D046005E85904700302026E73
:10013400120239580460F6EC4860F2EC7004FDFEDB
:10014400FF22C860DB2481C85009C39860025006AE
:100154000202759850CAF582E9294B4A7005AB82B0
:1001640002026475F0007C1A7880C3EF9BEE9AED6E
:1001740099400DC3EF9BFFEE9AFEED99FDE842F026
:10018400DC23ACF0D0E0FFD0E0FED0E0FDAB822079
:10019400E7101BEB60BAEC2CFCEF33FFEE33FEED03
:1001A40033FD020250E803F830E705C0F075F000B3
:1001B400EF2FFFEE33FEED33FD40B830E7C280AAE7
:1001C40075F020800E75F010800575F0087D007EB6
:1001D400007F003392D530D5031202D8EC3340109F
:1001E400EF33FFEE33FEED33FDEC33FCD5F0ED22BF
:0E01F400E5F0247EA2D513CC92E7CDCEFF22FB
:10020200EDD2E7CD33EC3392D524814006E4FFFEF4
:10021200FDFC22FCE4CFCECDCC24E0501174FF8053
:10022200EDC3CC13CCCD13CDCE13CECF13CF0470F0
:07023200F030D5DE0202D816
:10023900E9D2E7C933E833F892D5EDD2E7CD33EC0B
:0702490033FC5002B2D52284
:10025000EC30E7100FBF000C0EBE00080DBD00040F
:100260000BEB6014A2D5EB13FCED92E7FD2274FFBB
:10027000FCFDFEFF22E480F8A2D574FF13FC7D8014
:03028000E480EF28
:0300000002049166
:0C049100787FE4F6D8FD7581500204D895
:10028300BC000BBE0029EF8DF084FFADF022E4CC5F
:10029300F875F008EF2FFFEE33FEEC33FCEE9DEC28
:1002A300984005FCEE9DFE0FD5F0E9E4CEFD22ED6E
:1002B300F8F5F0EE8420D21CFEADF075F008EF2FB8
:1002C300FFED33FD4007985006D5F0F222C398FDA9
:0502D3000FD5F0EA2246
:0E02D800C3E49FFFE49EFEE49DFDE49CFC2237
:10049D00020753E493A3F8E493A34003F68001F21B
:1004AD0008DFF48029E493A3F85407240CC8C33360
:1004BD00C4540F4420C8834004F456800146F6DF2F
:1004CD00E4800B01020408102040809005B7E47E03
:1004DD00019360BCA3FF543F30E509541FFEE49324
:1004ED00A360010ECF54C025E060A840B8E493A3EB
:1004FD00FAE493A3F8E493A3C8C582C8CAC583CA16
:10050D00F0A3C8C582C8CAC583CADFE9DEE780BECD
:0105F3000007
:00000001FF
