:100C090008380A0A0A0A0A0A0A0A084800000000FB
:100C19000000000008300000000000000000012B67
:100C2900000256015404253F800000C103C101019F
:0A0C39005828012D1EC102014600DB
:100DA200E4F52AC203755828752D1EF52B755601D8
:0E0DB200755754F528F52775268075253F22C4
:1006C200E52F6003020916752F01120ABB8F2EE572
:1006D2002C652E552EF529852E2C30020302091089
:1006E20024FB602624FD604C1470030207ED24B045
:1006F200700302090824556003020916052AE52A37
:1007020064036003020916F52A22E52A7005A20392
:10071200B39203E52AB40105A201B39201E52A646A
:100722000260030209160522E5226403600302093E
:1007320016F52222E52A7002D202E52AB4011F2010
:100742000110740A2558F558D3945A401175585A15
:10075200800C052DE52DD394504003752D50E52ACC
:1007620064026003020916E52270147405252BF554
:100772002BD3648094DA5003020916752B5A22E5B2
:1007820022B40120740A2557F557E43556F556D39D
:10079200E5579406E5569427500302091675562725
:1007A20075570622E52264026003020916AF28AEDD
:1007B20027AD26AC257BCD7ACC79CC783D120015BD
:1007C2008F288E278D268C25E4FFFEFD7C40AB28EA
:1007D200AA27A926A8251202AC6002500302091614
:1007E200E4F528F527F52675254022E52A7071AC37
:1007F20050AD5112032AAB28AA27A926A825120216
:10080200AC4011E4FFFE7D4C7C42AB28AA27A9260E
:10081200A8258043C3E551945AE550940040047FD3
:10082200FF803AAB28AA27A926A825E4FFFE7DA0CF
:100832007C40120011E4FBFA79A0784212020FC048
:1008420004C005C006C007AC50AD51E412032AD063
:1008520003D002D001D000120106120363120E6609
:10086200E52AB4011D20011074F62558F558C394E9
:100872000A500F75580A800A152DE52DB4FF03E4BE
:10088200F52DE52A64026003020916E5227011744F
:10089200FB252BF52BC3648094265078752BA6225A
:1008A200E522B4011E74F62557F55774FF3556F547
:1008B20056C3E557940AE55694005058755600758C
:1008C200570A22E5226402704BAF28AE27AD26AC50
:1008D200257BCD7ACC79CC783D1200118F288E27DA
:1008E2008D268C257FCD7ECC7DCC7C3DAB28AA2766
:1008F200A926A8251202AC501B7528CD7527CC75E8
:1009020026CC75253D22E4F523F524D2002285422A
:05091200508543512255
:10046900E52160030206C1752101120CD28F558E58
:10047900548D538C52AD57AC56AF2B120B368E425E
:100489008F43E52A1470030205881470030205D00E
:10049900240260030206C1AF55AE54AD53AC5212EB
:1004A9000363EF75F00A84F538EF75F00A8485F077
:1004B90039754901E4FFFE7D207C41AB55AA54A959
:1004C90053A8521201061203637C007D0A12040626
:1004D9008D3A753B0B85420985430AE4F54DF54E86
:1004E90020033B750807E50A45096014AE09AF0A00
:1004F9007C007D0A12040674382508F8A6058007D1
:1005090074382508F8760AAE09AF0A7C007D0A120C
:1005190004068E098F0A1508E508B403C922AC42FE
:10052900AD43E412032AE4FBFA79C8784212020FB8
:100539008F0E8E0D8D0C8C0B753C0A1203638F3D4B
:10054900754D01E4FFFE7D207C41AB0EAA0DA90C7F
:10055900A80B120106120363EF75F00A8485F03EB9
:10056900E4FFFE7DC87C42AB0EAA0DA90CA80B12B4
:1005790001061203637C007D0A1204068D3F227571
:10058900380C2001047F0180027F028F39E4F5498C
:10059900F54DF54E75080274382508F8760A0508F0
:1005A900E508B406F2200104E5588002E52D75F04E
:1005B9000A84FF8F3E200104E5588002E52D75F07D
:1005C9000A84AFF08F3F2275380DE4F54EE5221409
:1005D900606C14700302068B240260030206C17565
:1005E9003901C3E52B648094804023753D0A753C2D
:1005F9000AE52B75F00A1203E4FF70067E0A7F0AEA
:1006090080008F3EE52B75F00A1203E4802CE52B60
:10061900F404F508D39409500D753D0A753C0A7523
:100629003E0B85083F22753C0A753D0BE50875F0C0
:100639000A84F53EE50875F00A8485F03F2275398C
:100649000285560985570A750807E50A45096014A0
:10065900AE09AF0A7C007D0A12040674382508F831
:10066900A605800774382508F8760AAE09AF0A7C12
:10067900007D0A1204068E098F0A1508E508B403DD
:10068900C922753903753D0A753C0AAF28AE27ADF5
:1006990026AC251203638F3EE4FFFE7D207C41AB2F
:1006A90028AA27A926A825120106120363EF75F0C7
:0806B9000A8485F03F754E0133
:0106C1002216
:100BAF00E52A7032F546AF43AE42D3EF94FFEE9491
:100BBF00005018E4FDEF5401FC74302DF8A604EE3C
:100BCF00C313FEEF13FF0DBD08EB227D08783074C1
:100BDF0001F608DDFC22E52AB401127D077830E426
:100BEF00F608DDFC753701E4F544F545227D0778FD
:090BFF0031E4F608DDFC85463006
:010C080022C9
:100EC500538E7F5389F0758A18758CFCC28DD28C30
:050ED500D2A9D2AF22FA
:03000B00020917D0
:10091700C0E0C0F0C083C082C0D075D000C000C0A6
:1009270001C002C003C004C005C006C007052FE50B
:100937002FB40A03752F000521AF217E00BE0106E3
:10094700BFF4037521000547E547B4080375470061
:1009570074382547F8E6FD7C0074482547F8E6FB20
:100967007A00AF47120C5674302547F8E6FD7C0035
:10097700AF47120C973002190541E5417002054057
:10098700FFAE40BE170BBF7008C20275400075412D
:1009970000300021E52EB4591C0524E5247002051A
:1009A70023FFAE23BE070EBFD00B120DA275230087
:1009B700752400C2000545E5457002054464644599
:1009C700447007634601F544F545AF587E00EF24B0
:1009D700FBFDEE34FFFCC3E5439DE5429C4029EF58
:1009E7002405FFEE33FED3E5439FE5429E5019AC45
:1009F7002DE412032FAB55AA54A953A8521202ACE7
:100A0700600250047F0180027F00120D7FD007D063
:100A170006D005D004D003D002D001D000D0D0D06A
:080A270082D083D0F0D0E03250
:0C0F0F007F237E337DB6DDFEDEFCDFFAC2
:010F1B0022B3
:100DDE007580FFE5A0541F4480F5A053A01FE4F5D5
:0D0DEE0080E5A0541F44A0F5A053A01F22D3
:100E9800120DDE120CD2120F0F120EC51206C2125C
:070EA8000469120BAF80F595
:040E18007F057E00D4
:100E1C00EF1FAA0670011E4A600BE4FDEDC3940C93
:050E2C0050EE0D80F7FF
:010E3100229E
:020DC000A90781
:100DC200E4FBC294E9139294120E18D294E9C3136D
:0C0DD200F90BBB08ED7F057E00020E1C33
:100E3200E4FBC294ECC313FCD294309403430480C9
:090E4200120E180BBB08EBAF0403
:010E4B002284
:100D3500C204D2947F0C7E00120E1CC2947F507E9A
:100D450000120E1CD2947F0A7E00120E1CA29492F1
:060D550004120E18A204B6
:010D5B002275
:100CD200E4F9FF120D357FCC120DC07F44120DC016
:100CE200120D357FCC120DC07FBE120DC0120E3216
:100CF200A907120E32EFAD01FCEC12032AE4FBFA53
:070D02007980783D02010633
:040E4C00D2A07F05AC
:100E5000000000000000000000000000000000AEE4
:060E6000071FEE70EB22FB
:0F0F0000D2A1120E4CC2A17F05120E50C2A02228
:0C0F1C00C2A1120E4CD2A17F05020E50A3
:020D0900AD0734
:100D0B00E4FCC2A07F05120E50ED30E704D2A180A7
:100D1B0002C2A17F05120E50D2A0ED25E0FD7F058A
:090D2B00120E500CBC08DBC2A042
:010D3400229C
:100DFB00E4FC120E4CED25E0FD30A103430501C2CE
:0C0E0B00A07F05120E500CBC08E8AF05DB
:010E170022B8
:030EDA00120D09ED
:100EDD00120E4CA2A1E433FDC2A07F05120E50AF3D
:010EED0005FF
:010EEE0022E1
:100E8000C2A0EF24FF92A17F05120E50120E4CC299
:080E9000A0D2A17F05020E5063
:100E6600AB07120F007F90120EDA7F40120EDAAF38
:0A0E760003120D09120EDD020F1C1D
:100ABB00E4FFC2C4D2C2D2B5D2B420B3027F0420A9
:100ACB00B2027F0520B1027F0620B0027F07D2C49D
:100ADB00C2C2D2B5D2B420B3027F0820B2027F09C2
:100AEB0020B30520B2027F5920B1027F0A20B00249
:100AFB007F0BD2C4D2C2C2B5D2B420B3027F0C20BA
:100B0B00B2027F0D20B1027F0E20B0027F0FD2C444
:100B1B00D2C2D2B5C2B420B3027F1020B2027F1171
:0A0B2B0020B1027F1220B0027F13F8
:010B3500229D
:100C43000112000113FF0114000115FF0116000139
:020C530017FF89
:100C9700ED4C600FA8077401088002C333D8FC42EB
:100CA70012800EA8077401088002C333D8FCF452DF
:100CB70012E51265136013E512F4F580E5A0541FE1
:0A0CC7004480F5A053A01F8512130E
:010CD1002200
:100D5C00EF600543144080035314BFE51465156020
:100D6C0011851480E5A0541F44A0F5A053A01F8545
:020D7C0014154C
:010D7E002252
:100D7F00EF600543161080035316EFE516651760F5
:100D8F0011851680E5A0541F44A0F5A053A01F8520
:020D9F00161725
:010DA100222F
:100EAF00C0F9A4B0999282F88090FFBF8C8E010296
:060EBF0004081020408031
:100C56007580FFE5A0541F44E0F5A053A01FEF9058
:100C66000EBD93F580E5A0541F44C0F5A053A01F08
:100C760074AF2DF582740E3CF583E493F580EB4A50
:100C8600600353807FE5A0541F44E0F5A053A01FE6
:010C9600223B
:0600030000007F21DFFE7A
:0100090022D4
:100EEF00E4FED290120003C2901200030EBE08F26D
:010EFF0022D0
:020B36008F0F1F
:100B3800E4F510F511120EEF53890FE4F58BF58DDE
:100B4800D28E309103308FFAC28E208F54AF8DEF42
:100B5800AB8BF510EBF511AE04AF05E412032A7B5D
:100B6800007A40799C784612020FC004C005C0067E
:100B7800C007AC10AD11E412032AD003D002D00193
:100B8800D000120106C004C005C006C007AC0FECB7
:100B980012032FD003D002D001D000120015020397
:060BA80063C28FE4FEFFB2
:010BAE002224
:10000E000203CFE86480F8E933E83360110460F04E
:10001E00ED33EC337009E8FCE9FDEAFEEBFF220458
:10002E0060DED3EB9FEA9EE99DE8C2E78CF0C2F753
:10003E0095F0400CE8CCF8E9CDF9EACEFAEBCFFB1F
:10004E0012039A85D0F05804700320D5B3E80470DB
:10005E00075002B2D50203D992D5EC0460F7E4CC76
:10006E00C0E0C398F8603B94186008400DD0E0FBE8
:10007E000203B1E4FBFAC9FC8028E830E406E4C9C7
:10008E00FBE4CAFCE830E305E4C9CACBFCE854073C
:10009E006010F8C3E913F9EA13FAEB13FBEC13FC47
:1000AE00D8F130F52FC3E49CFCEF9BFFEE9AFEEDEA
:1000BE0099FDD0E0FBEF4E4D4C701222DB03020394
:1000CE00D6EC2CFCEF33FFEE33FEED33FDED30E7D7
:1000DE00EB0203B1EF2BFFEE3AFEED39FDD0E0FB64
:1000EE0050130BBB00030203D9ED13FDEE13FEEF0D
:0800FE0013FFEC13FC0203B137
:10010600EC4D6011E8497017ED33EC3304600DE4F3
:10011600FCFFFEFD22E933E8330470F80203CF1238
:10012600039A58046009E4CC248150062850090239
:1001360003D92840030203D6C0E0EB4A7044B980D5
:1001460006D0E0FB0203C5EF4E701CBD8008EBFF36
:10015600EAFEE9FD80EBE98DF0A4FEE5F00201EF91
:10016600E9CDF9EAFEEBFFEF89F0A4FCE5F0CE89D4
:10017600F0A42EFFE435F0CD89F0A42DFEE435F091
:100186008067EF4E7005BD80D780C3EF8BF0A4ACBF
:10019600F0EE8BF0A42CFCE435F0F8EF8AF0A42CFA
:1001A600E5F038FCE433CB8DF0A42CFCE5F03BF80D
:1001B600EE8AF0A42CFCE5F038F8E433CF89F0A4FD
:1001C6002CFCE5F038CF3400CE89F0A42FFFE5F003
:1001D6003EFEE433C98DF0A42EFEE5F039CD8AF05B
:1001E600A42FFFE5F03EFEE43DFD33D0E0FB5007D3
:1001F6000BBB000F0203D9EC2CFCEF33FFEE33FEF2
:06020600ED33FD0203B11F
:10020C000203D9EC5D046005E8590470030203CFC6
:10021C0012039A580460F6EC4860F2EC7004FDFE90
:10022C00FF22C860DB2481C85009C39860025006C5
:10023C000203D69850CAF582E9294B4A7005AB8265
:10024C000203C575F0007C1A7880C3EF9BEE9AED23
:10025C0099400DC3EF9BFFEE9AFEED99FDE842F03D
:10026C00DC23ACF0D0E0FFD0E0FED0E0FDAB822090
:10027C00E7101BEB60BAEC2CFCEF33FFEE33FEED1A
:10028C0033FD0203B1E803F830E705C0F075F00068
:10029C00EF2FFFEE33FEED33FD40B830E7C280AAFE
:1002AC0074F8CC6480CCC86480C8F58204604FC3F9
:1002BC00EB9FF5F0EA9E42F0E99D42F0E89C45F098
:1002CC00603C501DE5825FFFE582D313CB5BCBF422
:1002DC002B5582FB50280ABA002409B9002008804B
:1002EC001DE5825BFBE582D313CF5FCFF4C3132FE5
:1002FC005582FF50090EBE00050DBD00010CC3EB6D
:10030C009FF5F0EA9E42F0E99D42F0E89C45F060D2
:09031C0007CC4820E701B3EC22F4
:1003250075F020800E75F010800575F0087D007E53
:10033500007F003392D530D50312045BEC334010B7
:10034500EF33FFEE33FEED33FDEC33FCD5F0ED225C
:0E035500E5F0247EA2D513CC92E7CDCEFF2298
:10036300EDD2E7CD33EC3392D524814006E4FFFE92
:10037300FDFC22FCE4CFCECDCC24E0501174FF80F1
:10038300EDC3CC13CCCD13CDCE13CECF13CF04708E
:07039300F030D5DE02045B2F
:10039A00E9D2E7C933E833F892D5EDD2E7CD33ECA9
:0703AA0033FC5002B2D52222
:1003B100EC30E7100FBF000C0EBE00080DBD0004AD
:1003C1000BEB6014A2D5EB13FCED92E7FD2274FF59
:1003D100FCFDFEFF22E480F8A2D574FF13FC7D80B2
:0303E100E480EFC6
:03000000020A2FC2
:0C0A2F00787FE4F6D8FD758158020A7645
:1003E400C2D530F707B2D563F0FF05F030E70CB2A1
:1003F400D5F4048463F0FF05F080018430D502F461
:020404000422D0
:10040600BC000BBE0029EF8DF084FFADF022E4CCDA
:10041600F875F008EF2FFFEE33FEEC33FCEE9DECA3
:10042600984005FCEE9DFE0FD5F0E9E4CEFD22EDE9
:10043600F8F5F0EE8420D21CFEADF075F008EF2F33
:10044600FFED33FD4007985006D5F0F222C398FD24
:050456000FD5F0EA22C1
:0E045B00C3E49FFFE49EFEE49DFDE49CFC22B2
:100A3B00020E98E493A3F8E493A34003F68001F22B
:100A4B0008DFF48029E493A3F85407240CC8C333BC
:100A5B00C4540F4420C8834004F456800146F6DF8B
:100A6B00E4800B0102040810204080900C09E47E06
:100A7B00019360BCA3FF543F30E509541FFEE49380
:100A8B00A360010ECF54C025E060A840B8E493A347
:100A9B00FAE493A3F8E493A3C8C582C8CAC583CA72
:100AAB00F0A3C8C582C8CAC583CADFE9DEE780BE2A
:010C5500009E
:00000001FF
