:04027B00D2A07F0589
:08027F0000AE071FEE70F9222A
:0F026C00D2A112027BC2A17F0512027FC2A02283
:0C028700C2A112027BD2A17F0502027FFF
:10022F00C2A0A20092A17F0512027F12027BC2A080
:07023F00D2A17F0502027F3E
:0A01FB00AB0712026C7F9012018C1A
:1002050012027BA2A19200C2A07F0512027FA2006A
:0102150022C6
:02018C00AD07BD
:10018E00E4FCC2A07F0512027FED30E704D2A1800D
:10019E0002C2A17F0512027FD2A0ED25E0FD7F05F0
:0901AE0012027F0CBC08DBC2A0A8
:0101B7002225
:1001DE00E4FC12027BED25E0FD30A103430501C2D4
:0C01EE00A07F0512027F0CBC08E8AF05E2
:0101FA0022E2
:1001B8001201FBAF0312018C12020512026C7F912F
:1001C80012018C1202051201DEAD07D20012022FB5
:0501D800120287AF05D3
:0101DD0022FF
:100246001201FB7F4012018C120205AF0312018CD2
:06025600120205020287FE
:0B029E00C0F9A4B0999282F88090BFD4
:0302A90001080049
:0A021600EF1FAC0670011E4C600ED5
:0C022000750A0C750BA9D50BFDD50AFA68
:03022C0080E82245
:1000F300EF24FC601114601714601D14602324079F
:10010300702753A01F22E5A0541F4480F5A022E5C9
:10011300A0541F44A0F5A022E5A0541F44C0F5A09D
:0A01230022E5A0541F44E0F5A022DD
:09012D0075F00A84E5F093FF0D62
:10013600AE077F061200F3AF05A807740108800218
:10014600C333D8FCF5807F071200F38E807F027ED2
:08015600001202167580FF2261
:10008F00E50814601A04705B7F011201B88F0990A4
:10009F0002A8E493FFE4FD12013690029F80157FC2
:1000AF00031201B88F099002A8E493FFE4FD120137
:1000BF00369002A1E493FF0D1201369002A8E4934B
:1000CF00FF0D120136E50975F0648490029E93FFCF
:1000DF007D05120136E50975F00A8412012DE50937
:0400EF0012012D22AB
:0B029300EF1FAC0670011E4C70F6223D
:10015E0020B32A7F647E0012029320B320E508703C
:10016E000C20B30512008F80F875080122E508B443
:0E017E00010B20B30512008F80F8E4F5082273
:10025C007F041200F37580FF12015E12008F80F88C
:03000000020003F8
:0C000300787FE4F6D8FD75812002004AE9
:10000F0002025CE493A3F8E493A34003F68001F2A9
:10001F0008DFF48029E493A3F85407240CC8C333F2
:10002F00C4540F4420C8834004F456800146F6DFC1
:10003F00E4800B01020408102040809002A9E47EA6
:10004F00019360BCA3FF543F30E509541FFEE493B6
:10005F00A360010ECF54C025E060A840B8E493A37D
:10006F00FAE493A3F8E493A3C8C582C8CAC583CAA8
:10007F00F0A3C8C582C8CAC583CADFE9DEE780BE60
:0102AC000051
:00000001FF
