:10093700082F0A0A0A0A0A0A0A0A083E00000000E3
:100947000000000008270000000000000000044A23
:1009570040900000044E3F00000004384090000023
:0609670004463F00000001
:10064000E52660030207D9752601120B038F25E505
:100650002465255525F52285252424FB601E14607C
:100660002A147003020738240360030207D9052304
:10067000E523640360030207D9F52322E52364021E
:1006800060030207D9A200B3920022E523B4023C22
:10069000200039AF3BAE3AAD39AC38E4FBFAF9781B
:1006A0003F1200158F3B8E3A8D398C38E4FFFE7D6A
:1006B000A07C40AB3BAA3AA939A8381202AC600C26
:1006C000400AE4F53BF53AF53975383FE523640215
:1006D00060030207D92000030207D9AF49AE48AD35
:1006E00047AC46FBFAF9783F1200158F498E488DCA
:1006F000478C46E4FFFE7DA07C40AB49AA48A94751
:10070000A8461202AC600C400AE4F549F548F547EA
:1007100075463FAF3BAE3AAD39AC38AB49AA48A9B4
:1007200047A8461202AC50030207D9853B49853AD7
:100730004885394785384622E5236402705C2000ED
:1007400059AF3BAE3AAD39AC38FBFAF9783F1200FD
:10075000118F3B8E3A8D398C38E4FFFEFD7C3FAB28
:100760003BAA3AA939A8381202AC500BE4F53BF584
:100770003A7539A0753840AF49AE48AD47AC46AB85
:100780003BAA3AA939A8381202AC6002500C85493C
:100790003B85483A854739854638E523B4023A30E7
:1007A0000037AF49AE48AD47AC46E4FBFAF9783FB5
:1007B0001200118F498E488D478C46E4FFFEFD7C68
:1007C0003FAB49AA48A947A8461202AC500BE4F532
:0A07D00049F5487547A07546402220
:10044700E521600302063F7521017F03120A3BACD9
:1004570007E412032FE4FBFA794C784212020F8F5C
:10046700558E548D538C52E52364026018853B4D9D
:10047700853A4C85394B85384A8549518548508599
:10048700474F85464EAF51AE50AD4FAC4EAB55AA18
:1004970054A953A8521202AC60654063AF4DAE4CED
:1004A700AD4BAC4AAB55AA54A953A8521202AC5053
:1004B7004E1209AF8F37D201E537D3941450047F1A
:1004C700338044E537D394144031E5379450502BAB
:1004D700AC37E412032F7B027A9A7988783D1201B0
:1004E700067B4C7AA679AA78BE120015E4FBFA7946
:1004F7004C7842120106120363800C7FFF8008C20A
:1005070001E4F53DF52EFF120B45E52314700302B8
:1005170005E11460612402600302063F752F0C7524
:10052700320A75330AAF55AE54AD53AC521203635A
:100537008F34E4FFFE7D207C41AB55AA54A953A814
:1005470052120106120363EF75F00A8485F035E451
:10055700FFFE7DC87C42AB55AA54A953A85212018D
:10056700061203637C007D0A1203E48D367543018E
:10057700E4F541F54422752F0DAF3BAE3AAD39ACEA
:10058700381203638F32E4FFFE7D207C41AB3BAA28
:100597003AA939A838120106120363EF75F00A84E5
:1005A70085F03375340A754101AF49AE48AD47ACA4
:1005B700461203638F35E4FFFE7D207C41AB49AAD9
:1005C70048A947A846120106120363EF75F00A848B
:1005D70085F036754401E4F54322752F0E75320A0E
:1005E70075330A300142E53775F06484FF70047F84
:1005F7000A80008F34E53775F064847012E537752B
:10060700F00A8475F00A84E5F070047F0A800CE52F
:100617003775F00A8475F00A84AFF08F35E53775C2
:10062700F00A8485F036800975340F75350F7536F5
:090637000FE4F541F544F54322FE
:100A1400E52370047F0180027F008F27E523B40162
:100A2400047F0180027F008F28E523B402047F0144
:070A340080027F008F2922E0
:100B3000538E7F5389F0758A18758CFCC28DD28CC8
:050B4000D2A9D2AF2292
:03000B000207DA0F
:1007DA00C0E0C0F0C083C082C0D075D000C000C0E5
:1007EA0001C002C003C004C005C006C0070526E553
:1007FA0026B40A037526000521AF217E00BE010634
:10080A00BFF403752100053CE53CB40803753C00C0
:10081A00742F253CF8E6FD7C00743E253CF8E6FB87
:10082A007A00AF3C1208F67427253CF8E6FD7C00F6
:10083A00AF3C12097430010D053DE53DB464066311
:10084A002EFF753D00D007D006D005D004D003D0C6
:10085A0002D001D000D0D0D082D083D0F0D0E03204
:100A62007580FFE5A0541F4480F5A053A01FE4F554
:0D0A720080E5A0541F44A0F5A053A01F2252
:100B1A00120A627F03120A3B120B301206401204B9
:060B2A0047120A1480F5D9
:040AB900D2A07F0543
:100ABD00000000000000000000000000000000AE7B
:060ACD00071FEE70EB2292
:0F0B6B00D2A1120AB9C2A17F05120ABDC2A022EF
:0C0B7A00C2A1120AB9D2A17F05020ABD77
:0209E800AD0759
:1009EA00E4FCC2A07F05120ABDED30E704D2A18063
:1009FA0002C2A17F05120ABDD2A0ED25E0FD7F0546
:090A0A00120ABD0CBC08DBC2A0FD
:010A130022C0
:100A7F00E4FC120AB9ED25E0FD30A103430501C2E4
:0C0A8F00A07F05120ABD0CBC08E8AF05F2
:010A9B002238
:0B0A9C001209E8120AA7AF031209E8D4
:100AA700120AB9A2A1E433FDC2A07F05120ABDAFA5
:010AB7000539
:010AB800221B
:100AD300C2A0EF24FF92A17F05120ABD120AB9C278
:080AE300A0D2A17F05020ABDAB
:020A3B00AB0707
:100A3D00E4FD120B6B7F90120A9C120B6B7F9112CF
:100A4D0009E8120AA7120A7FAD077F01120AD31215
:040A5D000B7AAF055C
:010A61002272
:100B4500AB07120B6B7F901209E8120AA77F4312BD
:050B55000A9C020B7A6E
:100B0300E4FF20B3027F0420B2027F0520B1027FFD
:060B13000620B0027F077E
:010B190022B9
:100AEB00C0F9A4B0999282F88090FFBFC18CC388E3
:080AFB000102040810204080F4
:1008F6007580FFE5A0541F44E0F5A053A01FEF90BC
:100906000AFB93F580E5A0541F44C0F5A053A01F31
:1009160074EB2DF582740A3CF583E493F580EB4A7B
:10092600600353807FE5A0541F44E0F5A053A01F49
:01093600229E
:06096D000108000109FF72
:10097400ED4C600FA8077401088002C333D8FC4211
:1009840008800EA8077401088002C333D8FCF4520F
:1009940008E50865096013E508F4F580E5A0541F2F
:0A09A4004480F5A053A01F85080948
:0109AE002226
:0600030000007F21DFFE7A
:0100090022D4
:100B5A00E4FED290120003C2901200030EBE08F205
:010B6A002268
:1009AF0053890FE4F58DF58B120B5AD28E309103CC
:1009BF00308FFAC28E208F1CAF8DEFFEAD8BEDFF07
:1009CF00AC06E412032A7B967A43798B783C1201AA
:0809DF0006020363C28F7F00D2
:0109E70022ED
:10000E000203CFE86480F8E933E83360110460F04E
:10001E00ED33EC337009E8FCE9FDEAFEEBFF220458
:10002E0060DED3EB9FEA9EE99DE8C2E78CF0C2F753
:10003E0095F0400CE8CCF8E9CDF9EACEFAEBCFFB1F
:10004E0012039A85D0F05804700320D5B3E80470DB
:10005E00075002B2D50203D992D5EC0460F7E4CC76
:10006E00C0E0C398F8603B94186008400DD0E0FBE8
:10007E000203B1E4FBFAC9FC8028E830E406E4C9C7
:10008E00FBE4CAFCE830E305E4C9CACBFCE854073C
:10009E006010F8C3E913F9EA13FAEB13FBEC13FC47
:1000AE00D8F130F52FC3E49CFCEF9BFFEE9AFEEDEA
:1000BE0099FDD0E0FBEF4E4D4C701222DB03020394
:1000CE00D6EC2CFCEF33FFEE33FEED33FDED30E7D7
:1000DE00EB0203B1EF2BFFEE3AFEED39FDD0E0FB64
:1000EE0050130BBB00030203D9ED13FDEE13FEEF0D
:0800FE0013FFEC13FC0203B137
:10010600EC4D6011E8497017ED33EC3304600DE4F3
:10011600FCFFFEFD22E933E8330470F80203CF1238
:10012600039A58046009E4CC248150062850090239
:1001360003D92840030203D6C0E0EB4A7044B980D5
:1001460006D0E0FB0203C5EF4E701CBD8008EBFF36
:10015600EAFEE9FD80EBE98DF0A4FEE5F00201EF91
:10016600E9CDF9EAFEEBFFEF89F0A4FCE5F0CE89D4
:10017600F0A42EFFE435F0CD89F0A42DFEE435F091
:100186008067EF4E7005BD80D780C3EF8BF0A4ACBF
:10019600F0EE8BF0A42CFCE435F0F8EF8AF0A42CFA
:1001A600E5F038FCE433CB8DF0A42CFCE5F03BF80D
:1001B600EE8AF0A42CFCE5F038F8E433CF89F0A4FD
:1001C6002CFCE5F038CF3400CE89F0A42FFFE5F003
:1001D6003EFEE433C98DF0A42EFEE5F039CD8AF05B
:1001E600A42FFFE5F03EFEE43DFD33D0E0FB5007D3
:1001F6000BBB000F0203D9EC2CFCEF33FFEE33FEF2
:06020600ED33FD0203B11F
:10020C000203D9EC5D046005E8590470030203CFC6
:10021C0012039A580460F6EC4860F2EC7004FDFE90
:10022C00FF22C860DB2481C85009C39860025006C5
:10023C000203D69850CAF582E9294B4A7005AB8265
:10024C000203C575F0007C1A7880C3EF9BEE9AED23
:10025C0099400DC3EF9BFFEE9AFEED99FDE842F03D
:10026C00DC23ACF0D0E0FFD0E0FED0E0FDAB822090
:10027C00E7101BEB60BAEC2CFCEF33FFEE33FEED1A
:10028C0033FD0203B1E803F830E705C0F075F00068
:10029C00EF2FFFEE33FEED33FD40B830E7C280AAFE
:1002AC0074F8CC6480CCC86480C8F58204604FC3F9
:1002BC00EB9FF5F0EA9E42F0E99D42F0E89C45F098
:1002CC00603C501DE5825FFFE582D313CB5BCBF422
:1002DC002B5582FB50280ABA002409B9002008804B
:1002EC001DE5825BFBE582D313CF5FCFF4C3132FE5
:1002FC005582FF50090EBE00050DBD00010CC3EB6D
:10030C009FF5F0EA9E42F0E99D42F0E89C45F060D2
:09031C0007CC4820E701B3EC22F4
:1003250075F020800E75F010800575F0087D007E53
:10033500007F003392D530D503120439EC334010D9
:10034500EF33FFEE33FEED33FDEC33FCD5F0ED225C
:0E035500E5F0247EA2D513CC92E7CDCEFF2298
:10036300EDD2E7CD33EC3392D524814006E4FFFE92
:10037300FDFC22FCE4CFCECDCC24E0501174FF80F1
:10038300EDC3CC13CCCD13CDCE13CECF13CF04708E
:07039300F030D5DE02043951
:10039A00E9D2E7C933E833F892D5EDD2E7CD33ECA9
:0703AA0033FC5002B2D52222
:1003B100EC30E7100FBF000C0EBE00080DBD0004AD
:1003C1000BEB6014A2D5EB13FCED92E7FD2274FF59
:1003D100FCFDFEFF22E480F8A2D574FF13FC7D80B2
:0303E100E480EFC6
:0300000002086A89
:0C086A00787FE4F6D8FD7581550208B1D6
:1003E400BC000BBE0029EF8DF084FFADF022E4CCFD
:1003F400F875F008EF2FFFEE33FEEC33FCEE9DECC6
:10040400984005FCEE9DFE0FD5F0E9E4CEFD22ED0B
:10041400F8F5F0EE8420D21CFEADF075F008EF2F55
:10042400FFED33FD4007985006D5F0F222C398FD46
:050434000FD5F0EA22E3
:0E043900C3E49FFFE49EFEE49DFDE49CFC22D4
:10087600020B1AE493A3F8E493A34003F68001F273
:1008860008DFF48029E493A3F85407240CC8C33383
:10089600C4540F4420C8834004F456800146F6DF52
:1008A600E4800B0102040810204080900937E47EA2
:1008B600019360BCA3FF543F30E509541FFEE49347
:1008C600A360010ECF54C025E060A840B8E493A30E
:1008D600FAE493A3F8E493A3C8C582C8CAC583CA39
:1008E600F0A3C8C582C8CAC583CADFE9DEE780BEF1
:010973000083
:00000001FF
