:1004840008300A0A0A0A0A0A0A0A082600000000B2
:1004940000000000083C0000000000000000022EE4
:0604A40000000238000018
:10056800E52570177525011203418F24E5246523BD
:0C057800FF5524F522E524F45FF53A223B
:10041400E52170347521017B07852E0C852F0DE5B0
:100424000D450C6023AE0CAF0D7C007D0A1201ACAF
:1004340074302BF8A605AE0CAF0D7C007D0A1201BA
:08044400AC8E0C8F0D1B80D75C
:01044C00228D
:01067F002258
:10062800538E7F438905E4F58AF58CC28DD28CD22E
:02063800A922F5
:1005EC00538EBF53890F758B18758DFCC28FD28EAD
:0505FC00D2ABD2AF22DA
:03001B0002020FCF
:10020F00C0E0C0F0C083C082C0D075D000C000C0B5
:10021F0001C002C003C004C005C006C0070525E524
:10022F0025B40A037525000521E521B4C8037521FE
:10023F0000053BE53BB40803753B007430253BF8E4
:10024F00E6FD7C00743C253BF8E6FB7A00AF3B12E1
:10025F0003987426253BF8E6FD7C00AF3B1203D9CB
:10026F000539E53970020538FFAE38BE031DBFE80A
:10027F001AC28CAF8CEFAD8AF52EEDF52F753800C5
:10028F00753900758A00758C00D28CD007D006D0D6
:10029F0005D004D003D002D001D000D0D0D082D06E
:0602AF0083D0F0D0E03224
:100584007580FFE5A0541F4480F5A0E4F580E5A044
:0A059400541F44A0F5A053A01F223D
:100601001205841205EC1206281205681204141250
:04061100067F80F5EB
:04059E007F057E0057
:1005A200EF1FAA0670011E4A600BE4FDEDC3940C16
:0505B20050EE0D80F782
:0105B7002221
:02052D00A9071C
:10052F00E4FBC294E913929412059ED294E9C3138B
:0C053F00F90BBB08ED7F057E000205A251
:1005B800E4FBC294ECC313FCD2943094034304804C
:0905C80012059E0BBB08EBAF0409
:0105D1002207
:1004E300C200D2947F0C7E001205A2C2947F507E7C
:1004F300001205A2D2947F0A7E001205A2A2949252
:060503000012059EA2009B
:0105090022CF
:10044D00E4F9FF1204E37FCC12052D7F4412052D34
:10045D001204E37FCC12052D7FBE12052D1205B8B7
:10046D00A9071205B8EFAD01FCEC120129E4FBFA66
:07047D007980783D02001EAA
:0405D200D2A07F052F
:1005D600000000000000000000000000000000AE67
:0605E600071FEE70EB227E
:0F065D00D2A11205D2C2A17F051205D6C2A022DA
:0C066C00C2A11205D2D2A17F050205D662
:0204B700AD078F
:1004B900E4FCC2A07F051205D6ED30E704D2A18085
:1004C90002C2A17F051205D6D2A0ED25E0FD7F0568
:0904D9001205D60CBC08DBC2A020
:0104E20022F7
:10054B00E4FC1205D2ED25E0FD30A103430501C209
:0C055B00A07F051205D60CBC08E8AF0517
:010567002271
:10063A001205D2A2A1E433FDC2A07F051205D6AFEE
:01064A0005AA
:01064B00228C
:10000300C2A0EF24FF92A17F051205D61205D2C22A
:08001300A0D2A17F050205D671
:10061500C0F9A4B0999282F88090FF0102040810F5
:03062500204080F2
:100398007580FFE5A0541F44E0F5A053A01FEF901F
:1003A800062093F580E5A0541F44C0F5A053A01F74
:1003B80074152DF58274063CF583E493F580EB4AB9
:1003C800600353807FE5A0541F44E0F5A053A01FAD
:0103D8002202
:10034100E4FFC2C4D2C2D2B5D2B420B3027F04202A
:10035100B2027F0520B1027F0620B0027F07D2C41E
:10036100C2C2D2B5D2B420B3027F0820B2027F0943
:1003710020B1027F0A20B0027F0BD2C4D2C2C2B523
:10038100D2B420B3027F0C20B2027F0D20B1027FD4
:060391000E20B0027F0FF8
:010397002243
:0C04AA000108000109FF010A00010BFF1E
:1003D900ED4C600FA8077401088002C333D8FC42B2
:1003E90008800EA8077401088002C333D8FCF452B0
:1003F90008E50865096013E508F4F580E5A0541FD0
:0A0409004480F5A053A01F850809E8
:0104130022C6
:10050A00EF6005430A108003530AEFE50A650B60A2
:10051A0011850A80E5A0541F44A0F5A053A01F85A9
:02052A000A0BBA
:01052C0022AC
:0606780000007F26DFFEFA
:01067E002259
:10064C00E4FED290120678C2901206780EBE08F222
:01065C00227B
:10001E00EC4D6011E8497017ED33EC3304600DE4DC
:10002E00FCFFFEFD22E933E8330470F8020197125B
:10003E00016258046009E4CC24815006285009025C
:10004E0001A128400302019EC0E0EB4A7044B98032
:10005E0006D0E0FB02018DEF4E701CBD8008EBFF59
:10006E00EAFEE9FD80EBE98DF0A4FEE5F002010762
:10007E00E9CDF9EAFEEBFFEF89F0A4FCE5F0CE89BD
:10008E00F0A42EFFE435F0CD89F0A42DFEE435F07A
:10009E008067EF4E7005BD80D780C3EF8BF0A4ACA8
:1000AE00F0EE8BF0A42CFCE435F0F8EF8AF0A42CE3
:1000BE00E5F038FCE433CB8DF0A42CFCE5F03BF8F6
:1000CE00EE8AF0A42CFCE5F038F8E433CF89F0A4E6
:1000DE002CFCE5F038CF3400CE89F0A42FFFE5F0EC
:1000EE003EFEE433C98DF0A42EFEE5F039CD8AF044
:1000FE00A42FFFE5F03EFEE43DFD33D0E0FB5007BC
:10010E000BBB000F0201A1EC2CFCEF33FFEE33FE14
:06011E00ED33FD02017942
:1001240075F020800E75F010800575F0087D007E56
:10013400007F003392D530D503120201EC33401016
:10014400EF33FFEE33FEED33FDEC33FCD5F0ED225F
:0E015400E5F0247EA2D513CC92E7CDCEFF229B
:10016200E9D2E7C933E833F892D5EDD2E7CD33ECE3
:0701720033FC5002B2D5225C
:10017900EC30E7100FBF000C0EBE00080DBD0004E7
:100189000BEB6014A2D5EB13FCED92E7FD2274FF93
:10019900FCFDFEFF22E480F8A2D574FF13FC7D80EC
:0301A900E480EF00
:030000000202B544
:0C02B500787FE4F6D8FD7581430202FC5E
:1001AC00BC000BBE0029EF8DF084FFADF022E4CC37
:1001BC00F875F008EF2FFFEE33FEEC33FCEE9DEC00
:1001CC00984005FCEE9DFE0FD5F0E9E4CEFD22ED46
:1001DC00F8F5F0EE8420D21CFEADF075F008EF2F90
:1001EC00FFED33FD4007985006D5F0F222C398FD81
:0501FC000FD5F0EA221E
:0E020100C3E49FFFE49EFEE49DFDE49CFC220E
:1002C100020601E493A3F8E493A34003F68001F24C
:1002D10008DFF48029E493A3F85407240CC8C3333E
:1002E100C4540F4420C8834004F456800146F6DF0D
:1002F100E4800B0102040810204080900484E47E15
:10030100019360BCA3FF543F30E509541FFEE49301
:10031100A360010ECF54C025E060A840B8E493A3C8
:10032100FAE493A3F8E493A3C8C582C8CAC583CAF3
:10033100F0A3C8C582C8CAC583CADFE9DEE780BEAB
:0104B6000045
:00000001FF
