:10053A00082E0A0A0A0A0A0A0A0A082600000000FD
:0E054A00000000000837000000000000000064
:1006F500E52570137525011203368F24E52365243E
:080705005524F522852423226E
:1003EA00E52170397521017F011205BE753F008F25
:1003FA0040AE3F7C007D641201C78F33AE3FAF40F1
:10040A007C007D0A1201C77C007D0A1201C78D3467
:0E041A00AE3FAF407C007D0A1201C78D352237
:0100030022DA
:10073B00538E7F5389F0758A18758CFCC28DD28CC1
:05074B00D2A9D2AF228B
:03000B000202B638
:1002B600C0E0C0F0C083C082C0D075D000C000C00E
:1002C60001C002C003C004C005C006C0070525E57D
:1002D60025B40A037525000521AF217E00BE01065F
:1002E600BFF4037521000536E536B40803753600FC
:1002F600742E2536F8E6FD7C0074372536F8E6FBC5
:100306007A00AF361203A974262536F8E6FD7C007E
:10031600AF36120428D007D006D005D004D003D0BB
:1003260002D001D000D0D0D082D083D0F0D0E0323D
:10066D007580FFE5A0541F4480F5A053A01FE4F54D
:0D067D0080E5A0541F44A0F5A053A01F224B
:1007250012066D7F011205BE12073B1206F5120374
:06073500EA12000380F54A
:0406A7007F057E004D
:1006AB00EF1FAA0670011E4A600BE4FDEDC3940C0C
:0506BB0050EE0D80F778
:0106C0002217
:02064F00A907F9
:10065100E4FBC294E91392941206A7D294E9C3135E
:0C066100F90BBB08ED7F057E000206AB24
:1006C100E4FBC294ECC313FCD29430940343048042
:0906D1001206A70BBB08EBAF04F5
:0106DA0022FD
:10059700C200D2947F0C7E001206ABC2947F507EBD
:1005A700001206ABD2947F0A7E001206ABA2949289
:0605B700001206A7A200DD
:0105BD00221B
:10049D00E4F9FF1205977FCC12064F7F4412064FE9
:1004AD001205977FCC12064F7FBE12064F1206C162
:1004BD00A9071206C1EFAD01FCEC120119E4FBFA1C
:0704CD007980783D02000E6A
:10077900E4FEC297EF1392A3EFC313FFD2970EBE05
:0207890008F076
:01078B00224B
:10076500C29300C29700D29300120779AF05120712
:0407750079C2932290
:1004D400E4FDC29300C29700D29300120779E4FFAF
:1004E400C297EDC313FD30A303430580D2970FBF1A
:1004F40008EEC29300C29700D29700C2A300D2A311
:0305040000AF0540
:0105070022D1
:0406DB00D2A07F0525
:1006DF00000000000000000000000000000000AE5D
:0606EF00071FEE70EB2274
:0F079F00D2A11206DBC2A17F051206DFC2A02283
:0C07AE00C2A11206DBD2A17F050206DF0B
:02056B00AD07DA
:10056D00E4FCC2A07F051206DFED30E704D2A180C6
:10057D0002C2A17F051206DFD2A0ED25E0FD7F05A9
:09058D001206DF0CBC08DBC2A061
:010596002242
:10068A00E4FC1206DBED25E0FD30A103430501C2BF
:0C069A00A07F051206DF0CBC08E8AF05CD
:0106A6002231
:1005E500AB0512079F7FA012056B1205F7AF03122B
:0205F500056B94
:1005F7001206DBA2A1E433FDC2A07F051206DFAF1E
:0106070005ED
:0106080022CF
:10070D00C2A0EF24FF92A17F051206DF1206DBC205
:08071D00A0D2A17F050206DF56
:0205BE00AB0789
:1005C000E4FD12079F7F901205EC12079F7F9112A6
:1005D000056B1205F712068AAD077F0112070D128F
:0405E00007AEAF05AE
:0105E40022F4
:10075000AB0712079F7F9012056B1205F77F4112BE
:0507600005EC0207AEEC
:100463008B0E8A0F89101205E512079F7FA11205D3
:100473006B1205F7AF121512EF601C12068AAB0E52
:10048300AA0FA910EF1201B5E5126004E4FF800280
:0A0493007F0112070D80DD0207AEA5
:100508008B138A1489151205E5AF171517EF601FAD
:10051800AB130515E515AA147002051414F9120198
:100528009CFF12056B1205F77F141206DF80DA02B2
:0205380007AE0C
:10078C00C0F9A4B0999282F88090FF01020408107D
:03079C002040807A
:1003A9007580FFE5A0541F44E0F5A053A01FEF900E
:1003B900079793F580E5A0541F44C0F5A053A01FEB
:1003C900748C2DF58274073CF583E493F580EB4A30
:1003D900600353807FE5A0541F44E0F5A053A01F9C
:0103E90022F1
:100558000108000109FF010A00010BFF010C00015D
:020568000DFF85
:10042800ED4C600FA8077401088002C333D8FC4262
:1004380008800EA8077401088002C333D8FCF45260
:1004480008E50865096013E508F4F580E5A0541F80
:0A0458004480F5A053A01F85080999
:010462002277
:10060900EF6005430A408003530ABFE50A650B60A2
:1006190011850A80E5A0541F44A0F5A053A01F85A9
:020629000A0BBA
:01062B0022AC
:10062C00EF6005430C108003530CEFE50C650D6077
:10063C0011850C80E5A0541F44A0F5A053A01F8584
:02064C000C0D93
:01064E002289
:10033600E4FFC2C4D2C2D2B5D2B420B3027F042035
:10034600B2027F0520B1027F0620B0027F07D2C429
:10035600C2C2D2B5D2B420B3027F0820B2027F094E
:1003660020B1027F0A20B0027F0BD2C4D2C2C2B52E
:10037600D2B420B3027F0C20B2027F0D20B1027FDF
:100386000E20B0027F0FD2C4D2C2D2B5C2B420B3FF
:10039600027F1020B2027F1120B1027F1220B0022C
:0203A6007F13C3
:0103A8002232
:10000E00EC4D6011E8497017ED33EC3304600DE4EC
:10001E00FCFFFEFD22E933E8330470F8020187127B
:10002E00015258046009E4CC24815006285009027C
:10003E00019128400302018EC0E0EB4A7044B98062
:10004E0006D0E0FB02017DEF4E701CBD8008EBFF79
:10005E00EAFEE9FD80EBE98DF0A4FEE5F00200F783
:10006E00E9CDF9EAFEEBFFEF89F0A4FCE5F0CE89CD
:10007E00F0A42EFFE435F0CD89F0A42DFEE435F08A
:10008E008067EF4E7005BD80D780C3EF8BF0A4ACB8
:10009E00F0EE8BF0A42CFCE435F0F8EF8AF0A42CF3
:1000AE00E5F038FCE433CB8DF0A42CFCE5F03BF806
:1000BE00EE8AF0A42CFCE5F038F8E433CF89F0A4F6
:1000CE002CFCE5F038CF3400CE89F0A42FFFE5F0FC
:1000DE003EFEE433C98DF0A42EFEE5F039CD8AF054
:1000EE00A42FFFE5F03EFEE43DFD33D0E0FB5007CC
:1000FE000BBB000F020191EC2CFCEF33FFEE33FE35
:06010E00ED33FD02016962
:1001140075F020800E75F010800575F0087D007E66
:10012400007F003392D530D50312021CEC3340100B
:10013400EF33FFEE33FEED33FDEC33FCD5F0ED226F
:0E014400E5F0247EA2D513CC92E7CDCEFF22AB
:10015200E9D2E7C933E833F892D5EDD2E7CD33ECF3
:0701620033FC5002B2D5226C
:10016900EC30E7100FBF000C0EBE00080DBD0004F7
:100179000BEB6014A2D5EB13FCED92E7FD2274FFA3
:10018900FCFDFEFF22E480F8A2D574FF13FC7D80FC
:03019900E480EF10
:0300000002022ACF
:0C022A00787FE4F6D8FD75814002027177
:10019C00BB010689828A83E0225002E722BBFE0261
:0901AC00E32289828A83E4932294
:1001B500BB010689828A83F0225002F722BBFE0129
:0201C500F32223
:1001C700BC000BBE0029EF8DF084FFADF022E4CC1C
:1001D700F875F008EF2FFFEE33FEEC33FCEE9DECE5
:1001E700984005FCEE9DFE0FD5F0E9E4CEFD22ED2B
:1001F700F8F5F0EE8420D21CFEADF075F008EF2F75
:10020700FFED33FD4007985006D5F0F222C398FD65
:050217000FD5F0EA2202
:0E021C00C3E49FFFE49EFEE49DFDE49CFC22F3
:10023600020725E493A3F8E493A34003F68001F2B2
:1002460008DFF48029E493A3F85407240CC8C333C9
:10025600C4540F4420C8834004F456800146F6DF98
:10026600E4800B010204081020408090053AE47EE9
:10027600019360BCA3FF543F30E509541FFEE4938D
:10028600A360010ECF54C025E060A840B8E493A354
:10029600FAE493A3F8E493A3C8C582C8CAC583CA7F
:1002A600F0A3C8C582C8CAC583CADFE9DEE780BE37
:01056A000090
:00000001FF
