:10063B00082E0A0A0A0A0A0A0A0A082600000000FB
:0E064B00000000000837000000000000000062
:1007F600E525701375250112040D8F24E523652464
:080806005524F522852423226C
:10048000E52170637521017F031206BFAC07E412FA
:1004900001BEE4FBFA794C78421201178F428E417B
:1004A0008D408C3F1201F28F33E4FFFE7D207C41B2
:1004B000AB42AA41A940A83F12000E1201F2EF750B
:1004C000F00A8485F034E4FFFE7DC87C42AB42AA8A
:1004D00041A940A83F12000E1201F27C007D0A12D1
:0804E000029E8D35753C0122DE
:0100030022DA
:10083C00538E7F5389F0758A18758CFCC28DD28CBF
:05084C00D2A9D2AF2289
:03000B0002038D60
:10038D00C0E0C0F0C083C082C0D075D000C000C036
:10039D0001C002C003C004C005C006C0070525E5A5
:1003AD0025B40A037525000521AF217E00BE010687
:1003BD00BFF4037521000536E536B4080375360024
:1003CD00742E2536F8E6FD7C0074372536F8E6FBED
:1003DD007A00AF361204E874262536F8E6FD7C0067
:1003ED00AF36120529D007D006D005D004D003D0E2
:1003FD0002D001D000D0D0D082D083D0F0D0E03266
:10076E007580FFE5A0541F4480F5A053A01FE4F54B
:0D077E0080E5A0541F44A0F5A053A01F2249
:1008260012076E7F031206BF12083C1207F6120467
:060836008012000380F5B2
:0407A8007F057E004B
:1007AC00EF1FAA0670011E4A600BE4FDEDC3940C0A
:0507BC0050EE0D80F776
:0107C1002215
:02075000A907F7
:10075200E4FBC294E91392941207A8D294E9C3135A
:0C076200F90BBB08ED7F057E000207AC20
:1007C200E4FBC294ECC313FCD29430940343048040
:0907D2001207A80BBB08EBAF04F1
:0107DB0022FB
:10069800C200D2947F0C7E001207ACC2947F507EB9
:1006A800001207ACD2947F0A7E001207ACA2949283
:0606B800001207A8A200D9
:0106BE002219
:10059E00E4F9FF1206987FCC1207507F44120750E1
:1005AE001206987FCC1207507FBE1207501207C258
:1005BE00A9071207C2EFAD01FCEC1201B9E4FBFA78
:0705CE007980783D02000E68
:10087A00E4FEC297EF1392A3EFC313FFD2970EBE03
:02088A0008F074
:01088C002249
:10086600C29300C29700D2930012087AAF0512080D
:040876007AC293228D
:1005D500E4FDC29300C29700D2930012087AE4FFAB
:1005E500C297EDC313FD30A303430580D2970FBF18
:1005F50008EEC29300C29700D29700C2A300D2A30F
:0306050000AF053E
:0106080022CF
:0407DC00D2A07F0523
:1007E000000000000000000000000000000000AE5B
:0607F000071FEE70EB2272
:0F08A000D2A11207DCC2A17F051207E0C2A0227D
:0C08AF00C2A11207DCD2A17F050207E005
:02066C00AD07D8
:10066E00E4FCC2A07F051207E0ED30E704D2A180C2
:10067E0002C2A17F051207E0D2A0ED25E0FD7F05A5
:09068E001207E00CBC08DBC2A05D
:010697002240
:10078B00E4FC1207DCED25E0FD30A103430501C2BB
:0C079B00A07F051207E00CBC08E8AF05C9
:0107A700222F
:1006E600AB051208A07FA012066C1206F8AF031223
:0206F600066C90
:1006F8001207DCA2A1E433FDC2A07F051207E0AF18
:0107080005EB
:0107090022CD
:10080E00C2A0EF24FF92A17F051207E01207DCC2FF
:08081E00A0D2A17F050207E052
:0206BF00AB0787
:1006C100E4FD1208A07F901206ED1208A07F91129E
:1006D100066C1206F812078BAD077F0112080E1285
:0406E10008AFAF05AA
:0106E50022F2
:10085100AB071208A07F9012066C1206F87F4112B6
:0508610006ED0208AFE6
:100564008B0E8A0F89101206E61208A07FA11206CC
:100574006C1206F8AF121512EF601C12078BAB0E4B
:10058400AA0FA910EF12028CE5126004E4FF8002A6
:0A0594007F0112080E80DD0208AF9F
:100609008B138A1489151206E6AF171517EF601FA9
:10061900AB130515E515AA147002051414F9120295
:1006290073FF12066C1206F87F141207E080DA02D3
:0206390008AF08
:10088D00C0F9A4B0999282F88090FF01020408107B
:03089D0020408078
:1004E8007580FFE5A0541F44E0F5A053A01FEF90CE
:1004F800089893F580E5A0541F44C0F5A053A01FA9
:10050800748D2DF58274083CF583E493F580EB4AED
:10051800600353807FE5A0541F44E0F5A053A01F5B
:0105280022B0
:100659000108000109FF010A00010BFF010C00015B
:020669000DFF83
:10052900ED4C600FA8077401088002C333D8FC4260
:1005390008800EA8077401088002C333D8FCF4525E
:1005490008E50865096013E508F4F580E5A0541F7E
:0A0559004480F5A053A01F85080997
:010563002275
:10070A00EF6005430A408003530ABFE50A650B60A0
:10071A0011850A80E5A0541F44A0F5A053A01F85A7
:02072A000A0BB8
:01072C0022AA
:10072D00EF6005430C108003530CEFE50C650D6075
:10073D0011850C80E5A0541F44A0F5A053A01F8582
:02074D000C0D91
:01074F002287
:10040D00E4FFC2C4D2C2D2B5D2B420B3027F04205D
:10041D00B2027F0520B1027F0620B0027F07D2C451
:10042D00C2C2D2B5D2B420B3027F0820B2027F0976
:10043D0020B1027F0A20B0027F0BD2C4D2C2C2B556
:10044D00D2B420B3027F0C20B2027F0D20B1027F07
:10045D000E20B0027F0FD2C4D2C2D2B5C2B420B327
:10046D00027F1020B2027F1120B1027F1220B00254
:02047D007F13EB
:01047F00225A
:10000E00EC4D6011E8497017ED33EC3304600DE4EC
:10001E00FCFFFEFD22E933E8330470F802025E12A3
:10002E00022958046009E4CC2481500628500902A4
:10003E000268284003020265C0E0EB4A7044B980B2
:10004E0006D0E0FB020254EF4E701CBD8008EBFFA1
:10005E00EAFEE9FD80EBE98DF0A4FEE5F00200F783
:10006E00E9CDF9EAFEEBFFEF89F0A4FCE5F0CE89CD
:10007E00F0A42EFFE435F0CD89F0A42DFEE435F08A
:10008E008067EF4E7005BD80D780C3EF8BF0A4ACB8
:10009E00F0EE8BF0A42CFCE435F0F8EF8AF0A42CF3
:1000AE00E5F038FCE433CB8DF0A42CFCE5F03BF806
:1000BE00EE8AF0A42CFCE5F038F8E433CF89F0A4F6
:1000CE002CFCE5F038CF3400CE89F0A42FFFE5F0FC
:1000DE003EFEE433C98DF0A42EFEE5F039CD8AF054
:1000EE00A42FFFE5F03EFEE43DFD33D0E0FB5007CC
:1000FE000BBB000F020268EC2CFCEF33FFEE33FE5D
:06010E00ED33FD0202408A
:10011400020268EC5D046005E85904700302025EA3
:10012400120229580460F6EC4860F2EC7004FDFEFB
:10013400FF22C860DB2481C85009C39860025006BE
:100144000202659850CAF582E9294B4A7005AB82D0
:1001540002025475F0007C1A7880C3EF9BEE9AED8E
:1001640099400DC3EF9BFFEE9AFEED99FDE842F036
:10017400DC23ACF0D0E0FFD0E0FED0E0FDAB822089
:10018400E7101BEB60BAEC2CFCEF33FFEE33FEED13
:1001940033FD020240E803F830E705C0F075F000D3
:1001A400EF2FFFEE33FEED33FD40B830E7C280AAF7
:1001B40075F020800E75F010800575F0087D007EC6
:1001C400007F003392D530D5031202F3EC33401094
:1001D400EF33FFEE33FEED33FDEC33FCD5F0ED22CF
:0E01E400E5F0247EA2D513CC92E7CDCEFF220B
:1001F200EDD2E7CD33EC3392D524814006E4FFFE05
:10020200FDFC22FCE4CFCECDCC24E0501174FF8063
:10021200EDC3CC13CCCD13CDCE13CECF13CF047000
:07022200F030D5DE0202F30B
:10022900E9D2E7C933E833F892D5EDD2E7CD33EC1B
:0702390033FC5002B2D52294
:10024000EC30E7100FBF000C0EBE00080DBD00041F
:100250000BEB6014A2D5EB13FCED92E7FD2274FFCB
:10026000FCFDFEFF22E480F8A2D574FF13FC7D8024
:03027000E480EF38
:03000000020301F7
:0C030100787FE4F6D8FD758142020348C5
:10027300BB010689828A83E0225002E722BBFE0289
:09028300E32289828A83E49322BC
:10028C00BB010689828A83F0225002F722BBFE0151
:02029C00F3224B
:10029E00BC000BBE0029EF8DF084FFADF022E4CC44
:1002AE00F875F008EF2FFFEE33FEEC33FCEE9DEC0D
:1002BE00984005FCEE9DFE0FD5F0E9E4CEFD22ED53
:1002CE00F8F5F0EE8420D21CFEADF075F008EF2F9D
:1002DE00FFED33FD4007985006D5F0F222C398FD8E
:0502EE000FD5F0EA222B
:0E02F300C3E49FFFE49EFEE49DFDE49CFC221C
:10030D00020826E493A3F8E493A34003F68001F2D8
:10031D0008DFF48029E493A3F85407240CC8C333F1
:10032D00C4540F4420C8834004F456800146F6DFC0
:10033D00E4800B010204081020408090063BE47E0F
:10034D00019360BCA3FF543F30E509541FFEE493B5
:10035D00A360010ECF54C025E060A840B8E493A37C
:10036D00FAE493A3F8E493A3C8C582C8CAC583CAA7
:10037D00F0A3C8C582C8CAC583CADFE9DEE780BE5F
:01066B00008E
:00000001FF
