:10080F00013100083E0A0A0A0A0A0A0A0A083200D7
:10081F00000000000000000822000000000000009F
:0C082F0000012C00014A19014919C10008
:0E09D70000007F237E337DB6DDFEDEFCDFFAFE
:0109E50022EF
:1006E500E548706A7548011206728F47E52A654725
:1006F500FF5547F521E547F45FF52B85472AE521A9
:1007050024FB604824FD60231460312405703F05F7
:100715002CE52CB40303E4F52CE52CB40103854941
:100725004AE52C64027027854A4922E52C6401704C
:100735001D154AE54AB4FF16E4F54A22E52CB40135
:0F0745000D054AE54AB46406754A6322B20022E4
:1004A500200028AC49E412028FAB30AA2FA92EA850
:1004B5002D12020CE4500BF53DF53CF53BF53A02E7
:1004C500054EF53DF53C753BA0807BE4FFFE7DA028
:1004D5007C41AB30AA2FA92EA82D12020C60025028
:1004E5000DE4F53DF53C753B80753A3F805BE4FFD7
:1004F500FE7DA07C41AB30AA2FA92EA82D12020C9F
:10050500403CE4FFFE7D207C42AB30AA2FA92EA8FB
:100515002D12020C600250267F9A7E997D197C3E31
:10052500AB30AA2FA92EA82D120106E4FBFAF97803
:10053500C01200158F3D8E3C8D3B8C3A800BE4F547
:100545003DF53C753B80753A40E4FFFE7D4C7C42B1
:10055500AB3DAA3CA93BA83A1201061202C3020907
:01056500365F
:1003B900E54660030204A47546011207958F308E45
:1003C9002F8D2E8C2D1204A5E52C14605F14607AF4
:1003D900240260030204A4753E0EAF30AE2FAD2E89
:1003E900AC2D1202C3EF75F00A8475F00A8485F00A
:1003F90042EF75F00A8485F043E4FFFE7DC87C4234
:10040900AB30AA2FA92EA82D1201061202C3AB07E1
:10041900AA067C007D0A1203567C007D0A12035647
:100429008D447C007D0AAF03AE028067753E12756C
:10043900420A75430AE54A75F00A84F544E54A75A6
:10044900F00A8485F045E4F53722753E0C75420AB9
:10045900AF3DAE3CAD3BAC3A1202C38F43E4FFFE65
:100469007D207C41AB3DAA3CA93BA83A120106126A
:1004790002C3EF75F00A8485F044E4FFFE7DC87C71
:1004890042AB3DAA3CA93BA83A1201061202C37C21
:0C049900007D0A1203568D4575370122C4
:10084200A200B3E433F522E52C70047F0180027F1D
:10085200008F23E52CB401047F0180027F008F24E6
:0E086200E52CB402047F0180027F008F252266
:1009AE00538E7F5389F0758A18758CFCC28DD28C4C
:0509BE00D2A9D2AF2216
:03000B000205F2F9
:1005F200C0E0C0F0C083C082C0D075D000C000C0CF
:1006020001C002C003C004C005C006C0070548E51A
:1006120048B40A037548000546AF467E00BE01068F
:10062200BFF4037546000531E531B40803753100A6
:10063200743E2531F8E6FD7C0074322531F8E6FB84
:100642007A00AF3112075474222531F8E6FD7C009E
:10065200AF311207D4D007D006D005D004D003D0D2
:1006620002D001D000D0D0D082D083D0F0D0E032FE
:1008E1007580FFE5A0541F4480F5A053A01FE4F5D7
:0D08F10080E5A0541F44A0F5A053A01F22D5
:10096A001208E11207951209D71209AE1206E5120A
:07097A0003B912084280F5E9
:0409F500D2A07F0508
:0809F90000AE071FEE70F922A9
:0F09E600D2A11209F5C2A17F051209F9C2A02200
:0C0A0100C2A11209F5D2A17F050209F97B
:10098100C2A0A20192A17F051209F91209F5C2A024
:07099100D2A17F050209F964
:0309C300120870A7
:1009C6001209F5A2A19202C2A07F051209F9A2029C
:0109D60022FE
:02087000AD07D2
:10087200E4FCC2A07F051209F9ED30E704D2A180A1
:1008820002C2A17F051209F9D2A0ED25E0FD7F0584
:090892001209F90CBC08DBC2A03C
:01089B00223A
:1008FE00E4FC1209F5ED25E0FD30A103430501C22C
:0C090E00A07F051209F90CBC08E8AF0539
:01091A0022BA
:10093600AB071209E67F901209C37F401209C3AFC5
:0A094600031208701209C6020A012C
:040998007F057E0059
:10099C007C007D0C120344EF1FAC0670011E4C70E2
:0209AC00F62231
:0208C300AB0781
:1008C500E4FAC294EB139294120998D294EBC313F1
:0C08D500FB0ABA08ED7F057E0002099CBA
:10095000E4FAC294EBC313FBD294309403430380B4
:090960001209980ABA08EBAF0372
:01096900226B
:10089C00C202D2947F0C7E0012099CC2947F507EBF
:1008AC000012099CD2947F0A7E0012099CA2949299
:0608BC0002120998A202DD
:0108C2002213
:10079500E4F9FFFDFC12089C7FCC1208C37F4412CC
:1007A50008C312089C7FCC1208C37FBE1208C3126F
:1007B5000950A907120950AD07EDAD01FCE9AE04DA
:0F07C500FFE412028AE4FBFA7980783D02010614
:10067200E4FFC2C4D2C2D2B5D2B420B3027F0420F6
:10068200B2027F0520B1027F0620B0027F07D2C4EA
:10069200C2C2D2B5D2B420B3027F0820B2027F090F
:1006A20020B1027F0A20B0027F0BD2C4D2C2C2B5EF
:1006B200D2B420B3027F0C20B2027F0D20B1027FA0
:1006C2000E20B0027F0FD2C4D2C2D2B5C2B420B3C0
:1006D200027F1020B2027F1120B1027F1220B002ED
:0206E2007F1384
:0106E40022F3
:10091B00C0F9A4B0999282F88090FFBF8883C6A1DA
:0B092B00868E8C010204081020408022
:100754007580FFE5A0541F44E0F5A053A01FEF905F
:10076400092E93F580E5A0541F44C0F5A053A01FA3
:10077400741B2DF58274093CF583E493F580EB4AF0
:10078400600353807FE5A0541F44E0F5A053A01FED
:010794002242
:06083B000108000109FFA5
:1007D400ED4C600FA8077401088002C333D8FC42B3
:1007E40008800EA8077401088002C333D8FCF452B1
:1007F40008E50865096013E508F4F580E5A0541FD1
:0A0804004480F5A053A01F850809E9
:01080E0022C7
:10000E0002032FE86480F8E933E83360110460F0EE
:10001E00ED33EC337009E8FCE9FDEAFEEBFF220458
:10002E0060DED3EB9FEA9EE99DE8C2E78CF0C2F753
:10003E0095F0400CE8CCF8E9CDF9EACEFAEBCFFB1F
:10004E001202FA85D0F05804700320D5B3E804707C
:10005E00075002B2D502033992D5EC0460F7E4CC16
:10006E00C0E0C398F8603B94186008400DD0E0FBE8
:10007E00020311E4FBFAC9FC8028E830E406E4C967
:10008E00FBE4CAFCE830E305E4C9CACBFCE854073C
:10009E006010F8C3E913F9EA13FAEB13FBEC13FC47
:1000AE00D8F130F52FC3E49CFCEF9BFFEE9AFEEDEA
:1000BE0099FDD0E0FBEF4E4D4C701222DB03020394
:1000CE0036EC2CFCEF33FFEE33FEED33FDED30E777
:1000DE00EB020311EF2BFFEE3AFEED39FDD0E0FB04
:1000EE0050130BBB0003020339ED13FDEE13FEEFAD
:0800FE0013FFEC13FC020311D7
:10010600EC4D6011E8497017ED33EC3304600DE4F3
:10011600FCFFFEFD22E933E8330470F802032F12D8
:1001260002FA58046009E4CC2481500628500902DA
:100136000339284003020336C0E0EB4A7044B98015
:1001460006D0E0FB020325EF4E701CBD8008EBFFD6
:10015600EAFEE9FD80EBE98DF0A4FEE5F00201EF91
:10016600E9CDF9EAFEEBFFEF89F0A4FCE5F0CE89D4
:10017600F0A42EFFE435F0CD89F0A42DFEE435F091
:100186008067EF4E7005BD80D780C3EF8BF0A4ACBF
:10019600F0EE8BF0A42CFCE435F0F8EF8AF0A42CFA
:1001A600E5F038FCE433CB8DF0A42CFCE5F03BF80D
:1001B600EE8AF0A42CFCE5F038F8E433CF89F0A4FD
:1001C6002CFCE5F038CF3400CE89F0A42FFFE5F003
:1001D6003EFEE433C98DF0A42EFEE5F039CD8AF05B
:1001E600A42FFFE5F03EFEE43DFD33D0E0FB5007D3
:1001F6000BBB000F020339EC2CFCEF33FFEE33FE92
:06020600ED33FD020311BF
:10020C0074F8CC6480CCC86480C8F58204604FC399
:10021C00EB9FF5F0EA9E42F0E99D42F0E89C45F038
:10022C00603C501DE5825FFFE582D313CB5BCBF4C2
:10023C002B5582FB50280ABA002409B900200880EB
:10024C001DE5825BFBE582D313CF5FCFF4C3132F85
:10025C005582FF50090EBE00050DBD00010CC3EB0D
:10026C009FF5F0EA9E42F0E99D42F0E89C45F06073
:09027C0007CC4820E701B3EC2295
:1002850075F020800E75F010800575F0087D007EF4
:10029500007F003392D530D5031203ABEC33401009
:1002A500EF33FFEE33FEED33FDEC33FCD5F0ED22FD
:0E02B500E5F0247EA2D513CC92E7CDCEFF2239
:1002C300EDD2E7CD33EC3392D524814006E4FFFE33
:1002D300FDFC22FCE4CFCECDCC24E0501174FF8092
:1002E300EDC3CC13CCCD13CDCE13CECF13CF04702F
:0702F300F030D5DE0203AB81
:1002FA00E9D2E7C933E833F892D5EDD2E7CD33EC4A
:07030A0033FC5002B2D522C2
:10031100EC30E7100FBF000C0EBE00080DBD00044D
:100321000BEB6014A2D5EB13FCED92E7FD2274FFF9
:10033100FCFDFEFF22E480F8A2D574FF13FC7D8052
:03034100E480EF66
:0300000002056690
:0C056600787FE4F6D8FD75814A0205ADEF
:10034400EF8DF0A4A8F0CF8CF0A428CE8DF0A42ECD
:02035400FE2287
:10035600BC000BBE0029EF8DF084FFADF022E4CC8B
:10036600F875F008EF2FFFEE33FEEC33FCEE9DEC54
:10037600984005FCEE9DFE0FD5F0E9E4CEFD22ED9A
:10038600F8F5F0EE8420D21CFEADF075F008EF2FE4
:10039600FFED33FD4007985006D5F0F222C398FDD5
:0503A6000FD5F0EA2272
:0E03AB00C3E49FFFE49EFEE49DFDE49CFC2263
:1005720002096AE493A3F8E493A34003F68001F22C
:1005820008DFF48029E493A3F85407240CC8C3338A
:10059200C4540F4420C8834004F456800146F6DF59
:1005A200E4800B010204081020408090080FE47ED2
:1005B200019360BCA3FF543F30E509541FFEE4934E
:1005C200A360010ECF54C025E060A840B8E493A315
:1005D200FAE493A3F8E493A3C8C582C8CAC583CA40
:1005E200F0A3C8C582C8CAC583CADFE9DEE780BEF8
:0108410000B6
:00000001FF
