:0B01C300C0F9A4B0999282F88090BFB0
:0301CE0001080124
:10019A00EF1FAC0670011E4C600A7D0C7CA9DCFEC8
:0401AA00DDFC80EC0C
:0101AE00222E
:10008F00EFB40800505E90009CF82828730200B46B
:10009F000200BB0200C20200C90200D00200D90256
:1000AF0000E20200EBC2A7C2A6C2A522C2A7C2A647
:1000BF00D2A522C2A7D2A6C2A522C2A7D2A6D2A5D6
:1000CF0022E5A0541F4480F5A022E5A0541F44A0B0
:1000DF00F5A022E5A0541F44C0F5A022E5A0541FAF
:0500EF0044E0F5A02231
:06014C009001CDE493FFD9
:10015200AE077F0612008FAF05A807740108800260
:10016200C333D8FCF5807F0712008F8E807F027E1A
:080172000012019A7580FF22C2
:1000F4009001C5E493FFE4FD1201529001C3E4931F
:10010400FF7D011201529001C5E493FF7D021201AB
:10011400529001C6E493FF7D031201527D04120143
:100124004C7D0512014CE50875F00A849001C393D7
:10013400FF7D06120152E50875F00A84E5F090018E
:08014400C393FF7D0702015285
:1001AF00AB07AA06EB1BAE0270011A4E60051200D8
:0401BF00F480F122B5
:10017A007F0412008F7580FF1200F40508E508D38A
:10018A00940C40037508017F647E001201AF80E081
:03000000020003F8
:0C000300787FE4F6D8FD75810802004A01
:10000F0002017AE493A3F8E493A34003F68001F28C
:10001F0008DFF48029E493A3F85407240CC8C333F2
:10002F00C4540F4420C8834004F456800146F6DFC1
:10003F00E4800B01020408102040809001CEE47E82
:10004F00019360BCA3FF543F30E509541FFEE493B6
:10005F00A360010ECF54C025E060A840B8E493A37D
:10006F00FAE493A3F8E493A3C8C582C8CAC583CAA8
:10007F00F0A3C8C582C8CAC583CADFE9DEE780BE60
:0101D100002D
:00000001FF
