:1013BE0053540D0A00242532642C252E32660D0A54
:1013CE0000504152410D0A002325642C25640D0A5C
:0C13DE00002573004552524F520D0A00CA
:1011C700084F0A0A0A0A0A0A0A0A48000000000029
:1011D70000000000004800080000000000000000B8
:1011E700014500C109012500014400015B1E015AA8
:1011F70023014C1E014623C18C024D0000C10AC1C8
:041207000B012200B5
:100E5700E54B6003020F6D754B011211548F49E585
:100E6700496548FF5549F547E549F45FF558854910
:100E770048E547B40C04D20A8007E547B40D02D20F
:100E87000BE5587003020F6DC3E54E94E8E54D94EA
:100E970003401BE4F54DF54E300A05C20AF54A2218
:100EA700200B03020F6DC20BA20CB3920C22E55864
:100EB70024F4604124FC605D147003020F45240490
:100EC7006003020F6D200906D209E4F54422C20926
:100ED700E4F525E55AB54606E55B654C6010054A1D
:100EE7007B007A00794A756401E4FD12134F854649
:100EF7005A854C5B22D20AE4F54DF54E20090B05C5
:100F070025E5256403705FF525220544E544640261
:100F17007054F5442230094EE5447011154C154CB8
:100F2700C3E54C64809480503DE4F54C2274FB2566
:100F370046F546C364809480502CE4F54622300978
:100F470025E5447011054C054CD3E54C648094E3CA
:100F57004014754C632274052546F546D364809486
:070F6700E34003754663221D
:100CE700E52445236003020E56F5237524011213EC
:100CF700878F5F8E5E8D5D8C5C1213168F57300C5D
:100D07001CAF5AEF3395E0FED3E5579FEE6480F8AA
:100D170074809850047F6680067FCC80027F14120F
:100D270015DF300903020E0B75550A75540A755302
:100D37000A75520A75510A75500AE490000DF0E5DC
:100D47002514606A14607B24026003020E56754FF7
:100D57000B90000D7401F0AF5FAE5EAD5DAC5C1241
:100D670001E3EF75F00A84F553EF75F00A8485F017
:100D770054E4FFFE7D207C41AB5FAA5EA95DA85CC1
:100D87001200261201E37C007D0A1206188D55E435
:100D9700FFFE7DC87C42AB5FAA5EA95DA85C12001E
:100DA700261201E37C007D0A1206188D5622754F24
:100DB7000CE55775F00A84F555E55775F00A840276
:100DC7000E53754F0DE54A75F00A8485F056E54ACE
:100DD70075F00A84756000F5617B06E56145606022
:100DE7006EAE60AF617C007D0A120618744F2BF857
:100DF700A605AE60AF617C007D0A1206188E608F73
:100E0700611B80D7754F0E75540A75530A75510AC1
:100E170075500AE490000DF0E54414601A04702F31
:100E2700755201E54C75F00A12059EF555E54C75AE
:100E3700F00A12059E8015755202E54675F00A12F2
:0F0E4700059EF555E54675F00A12059E85F05695
:010E56002279
:10121200AC5BEC1201AFAB5FAA5EA95DA85C1201E8
:101222002C600640047F0180027F00900000EFF0F6
:10123200AF5AEF3395E0FEC3E5579FEE6480F87432
:10124200809850047F0180027F00900001EFF0A29D
:061252000CE433A3F022BE
:10102000E52260030210C7752201E545D394015003
:10103000030210C778267C007D007BFF7A1379BEFF
:1010400012082FEF701D7563FF7564137565C3F586
:1010500066855767855F6B855E6A855D69855C68B7
:10106000FB804578267C007D007BFF7A1379CF12C8
:10107000082FEF701F7563FF7564137565D6AF5A3F
:10108000EF3395E0F5668F67AF5BEF3395E0F5687A
:101090008F6980127563FF7564137565DF7566FF70
:1010A0007567137568E27B007A0079301208D47B8B
:1010B000007A00793012148FE4F545FE7F0AFDFBBB
:0810C0007A00792612084C2287
:10000E00538E7F5389F0758A18758CFCC28DD28CF5
:05001E00D2A9D2AF22BF
:03000B00020F6E73
:100F6E00C0E0C0F0C083C082C0D075D000C000C049
:100F7E0001C002C003C004C005C006C007054BE592
:100F8E004BB40A03754B000524E524700205236457
:100F9E00C845237004F523F5240559E559B4080313
:100FAE00755900300A06E549640C6008300B0DE5F2
:100FBE0049B40D08054EE54E7002054D0522E52299
:100FCE00B46403752200744F2559F8E6FD7C007455
:100FDE00082559F582E43400F583E0FB7A00AF5919
:100FEE0012129A74002559F582E43400F583E0FD5F
:100FFE007C00AF591212DBD007D006D005D004D03A
:10100E0003D002D001D000D0D0D082D083D0F0D087
:02101E00E032BE
:101531007580FFE5A0541F4480F5A0E4F580E5A087
:0A154100541F44A0F5A053A01F2280
:030023000214D8EC
:1014D800C0E0C0D075D000C00030980B74262545F8
:0E14E800F8A6990545C298D000D0D0D0E032C9
:0C1614007F237E337DB6DDFEDEFCDFFAB6
:0116200022A7
:101416001213877B007A00794A756401E4FD121283
:10142600581216141215311215C812000E120E5744
:0B143600120CE712121212102080F2BC
:04154B007F057E009A
:10154F00EF1FAA0670011E4A600BE4FDEDC3940C59
:05155F0050EE0D80F7C5
:011564002264
:0214F600A90744
:1014F800E4FBC294E913929412154BD294E9C313F6
:0C150800F90BBB08ED7F057E0002154FBB
:10156500E4FBC294ECC313FCD2943094034304808F
:0915750012154B0BBB08EBAF048F
:01157E00224A
:10144100C200D2947F0C7E0012154FC2947F507E51
:101451000012154FD2947F0A7E0012154FA294926A
:061461000012154BA20071
:011467002262
:10138700E4F9FF1214417FCC1214F67F441214F6CD
:101397001214417FCC1214F67FBE1214F612156593
:1013A700A907121565EFAD01FCEC1201AAE4FBFADF
:0713B7007980783D02002659
:04157F00D2A07F0572
:10158300000000000000000000000000000000AEAA
:06159300071FEE70EB22C1
:0F160500D2A112157FC2A17F05121583C2A022A8
:0C162100C2A112157FD2A17F0502158323
:0213EA00AD074D
:1013EC00E4FCC2A07F05121583ED30E704D2A18086
:1013FC0002C2A17F05121583D2A0ED25E0FD7F0569
:09140C001215830CBC08DBC2A020
:0114150022B4
:10151400E4FC12157FED25E0FD30A103430501C273
:0C152400A07F051215830CBC08E8AF0581
:011530002298
:1014B400AB051216057FA01213EA1214C6AF03126D
:0214C40013EA29
:1014C60012157FA2A1E433FDC2A07F05121583AFDA
:0114D6000510
:0114D70022F2
:10159900C2A0EF24FF92A17F0512158312157FC205
:0815A900A0D2A17F0502158309
:1015DF00AB071216057F901213EA1214C67F411241
:0515EF0014BB021621EF
:10134F008B608A6189621214B4E5651565AE6470AD
:10135F000215644E601FAB600562E562AA61700200
:10136F00056114F91205C0FF1213EA1214C67F6447
:08137F0012158380D40216212F
:101258008B608A6189621214B41216057FA1121379
:10126800EA1214C6AF641564EF6024121514AB605B
:101278000562E562AA617002056114F9EF120606BB
:10128800E5646004E4FF80027F0112159980D502AD
:0212980016211D
:1015B100C0F9A4B0999282F88090FFC6C7C88C0187
:0715C1000204081020408025
:10129A007580FFE5A0541F44E0F5A053A01FEF900E
:1012AA0015C093F580E5A0541F44C0F5A053A01FB4
:1012BA0074B12DF58274153CF583E493F580EB4AFD
:1012CA00600353807FE5A0541F44E0F5A053A01F9C
:0112DA0022F1
:10115400E4FFC2C4D2C2D2B5D2B420B3027F042009
:10116400B2027F0520B1027F0620B0027F07D2C4FD
:10117400C2C2D2B5D2B420B3027F0820B2027F0922
:1011840020B1027F0A20B0027F0BD2C4D2C2C2B502
:10119400D2B420B3027F0C20B2027F0D20B1027FB3
:1011A4000E20B0027F0FD2C4D2C2D2B5C2B420B3D3
:1011B400027F1020B2027F1120B1027F1220B00200
:0211C4007F1397
:0111C6002206
:06120B000108000109FFCB
:1012DB00ED4C600FA8077401088002C333D8FC42A1
:1012EB0008800EA8077401088002C333D8FCF4529F
:1012FB0008E50865096013E508F4F580E5A0541FBF
:0A130B004480F5A053A01F850809D7
:0113150022B5
:06162D0000007F26DFFE35
:011633002294
:1015F400E4FED29012162DC29012162D0EBE08F2E1
:0116040022C3
:1013160075D900E4F5E9F5F91215F4D2DE3091033A
:1013260030DFFAC2DE20DF1CAFF9EFFEADE9EDFFDC
:10133600AC06E41201AA7B967A43798B783C1200BC
:08134600260201E3C2DF7F0073
:01134E00227C
:1015C800759850438E01438E0475D78F75D6FD43A9
:0715D8008E10D2ACD2AF224D
:080003008F993099FDC299228A
:10148F008B608A618962AB60AA61A9621205C06034
:10149F00130562E5627002056114F91205C0FF12AF
:0514AF00000380E222B1
:10002600EC4D6011E8497017ED33EC3304600DE4D4
:10003600FCFFFEFD22E933E8330470F802024F129A
:10004600021A58046009E4CC24815006285009029B
:100056000259284003020256C0E0EB4A7044B980B8
:1000660006D0E0FB020245EF4E701CBD8008EBFF98
:10007600EAFEE9FD80EBE98DF0A4FEE5F002010F52
:10008600E9CDF9EAFEEBFFEF89F0A4FCE5F0CE89B5
:10009600F0A42EFFE435F0CD89F0A42DFEE435F072
:1000A6008067EF4E7005BD80D780C3EF8BF0A4ACA0
:1000B600F0EE8BF0A42CFCE435F0F8EF8AF0A42CDB
:1000C600E5F038FCE433CB8DF0A42CFCE5F03BF8EE
:1000D600EE8AF0A42CFCE5F038F8E433CF89F0A4DE
:1000E6002CFCE5F038CF3400CE89F0A42FFFE5F0E4
:1000F6003EFEE433C98DF0A42EFEE5F039CD8AF03C
:10010600A42FFFE5F03EFEE43DFD33D0E0FB5007B3
:100116000BBB000F020259EC2CFCEF33FFEE33FE53
:06012600ED33FD02023181
:10012C0074F8CC6480CCC86480C8F58204604FC37A
:10013C00EB9FF5F0EA9E42F0E99D42F0E89C45F019
:10014C00603C501DE5825FFFE582D313CB5BCBF4A3
:10015C002B5582FB50280ABA002409B900200880CC
:10016C001DE5825BFBE582D313CF5FCFF4C3132F66
:10017C005582FF50090EBE00050DBD00010CC3EBEE
:10018C009FF5F0EA9E42F0E99D42F0E89C45F06054
:09019C0007CC4820E701B3EC2276
:1001A50075F020800E75F010800575F0087D007ED5
:1001B500007F003392D530D50312066DEC33401025
:1001C500EF33FFEE33FEED33FDEC33FCD5F0ED22DE
:0E01D500E5F0247EA2D513CC92E7CDCEFF221A
:1001E300EDD2E7CD33EC3392D524814006E4FFFE14
:1001F300FDFC22FCE4CFCECDCC24E0501174FF8073
:10020300EDC3CC13CCCD13CDCE13CECF13CF04700F
:07021300F030D5DE02066D9C
:10087800E5772463F8E60577227860300702786325
:10088800E475F00112067B0205C02000EB7F2ED232
:10089800008018EF540F2490D43440D4FF30040B58
:1008A800EF24BFB41A0050032461FFE578600215F5
:1008B80078057BE57B7002057A30070D7860E47572
:1008C800F00112067BEF0206060214687403D207D1
:1008D8008003E4C207F5778B608A618962E4F57862
:1008E800F57AF57BE57860077F201208B380F57507
:1008F80079FFC201C200C202C203C205C206C20811
:10090800120881FF700D3007057F001208C4AF7B05
:10091800AE7A22B4255FC2D5C204120881FF24D062
:10092800B40A00501A75F00A787830D50508B6FF71
:100938000106C6A426F620D5047002D20380D92465
:10094800CFB41A00EF5004C2E5D204020BB1D201B1
:1009580080C6D20080C0D20280BCD2D580BAD2056F
:1009680080B47F201208B32002077401B5780040D4
:10097800F1120878FF1208B30208ECD208D20680F8
:1009880095120878FB120878FA120878F94A4B7021
:100998000679A87A0C7BFF20022EE578602A7E0073
:1009A8008E827583001205D960060EEE657970F0A7
:1009B800C2D5EBC0E0EAC0E0E9C0E0EE120C11D00D
:1009C800E0F9D0E0FAD0E0FB1205C0FF60AAEBC066
:1009D800E0EAC0E0E9C0E01208B3D0E02401F9D0B1
:1009E800E03400FAD0E0FBE5790460DCD579D98001
:1009F80087D20280A2120BF460F7E5797001041225
:100A08000264A979600DE579600914F579120C9BE7
:100A1800EF60F3EA30E702F404C3995077EAF4256B
:100A2800790430E701E404F579800D120BF460C114
:100A3800EA05792579120264EA7876F630E701E466
:100A4800257904D5790420050114120C11E4C0E0BD
:100A5800120C9B7876E6601320E70714F612089BC1
:100A6800802204F6D0E014C0E07F0012089BE579EC
:100A780060071208921579800B300503120892D08E
:100A8800E00208ECD0E00480C5120BF460A0E57920
:100A9800041202647876EAF6E5792005026001041A
:050AA8002404120C11F2
:100AAD0074FF04C0E0120C9B12089BE5792005022F
:100ABD006003120892D0E0B579E87F451208A57859
:100ACD0076E67F2B30E7047F2DF404C0E01208B3E7
:100ADD00D0E075F00A84C0F012089CD0E012089C9A
:100AED000208EC791080027908C206C2088008D28B
:100AFD00D5790A8004790AC2D5E579047002F579B1
:100B0D00E4FAFDFEFF120878FC7B082001131208A1
:100B1D0078FD7B1030000A120878FE120878FF7BF2
:100B2D0020EC3382D592D55013C3E43000069FFFDD
:100B3D00E49EFEE42001039DFDE49CFCE4CBF8C2A1
:100B4D0001EC700CCFCECDCCE824F8F870F3801703
:100B5D00C3EF33FFEE33FEED33FDEC33FCEB33FB34
:100B6D00994002FB0FD8E9EB300105F8D0E0C448FD
:100B7D00B201C0E00AEC4D4E4F78207B0070C2EA06
:100B8D00B5790040BCC0E0120C13D0F0D0E02001CC
:100B9D0004C4C0E0C4B201C0F012089CD0F0D5F07E
:100BAD00EB0208EC12068B0989530AF058095A4CCE
:100BBD000956420AF44F0AFC440AFC49096F430BDB
:100BCD0002550A33460A914509FD470CC850095E86
:100BDD002D09622E09852B0966230983200CB12A64
:100BED00091E480000097DE579B4FF0375790612E9
:100BFD000878FC120878FD120878FE120878FF7844
:100C0D006F020293790AA2D5200314300509B91099
:100C1D00020404B9080104A2D520060250010420E3
:100C2D0002689202B578005034C0E07F203003197D
:100C3D007F30A20272067205500F120C6AC202C2F8
:100C4D0006C205C2087F30800F300503E9C0E012EF
:100C5D0008B3300503D0E0F9D0E0B578CC300517F6
:100C6D007F30B9100C1208B37F583004077F78809D
:100C7D0003B908031208B33002057F2D0208B37FB4
:100C8D00202008F87F2B2006F322920280CF7F00D0
:100C9D00B407005005246FF8E6FF22286E756C6CC2
:100CAD002900D2011208783001F8C201787830D5C8
:100CBD000108F602091E2D504349581208782403E5
:100CCD00B405004001E4900CC3931208A4743A12C9
:0A0CDD0008A4D203757804020AF09F
:10021A00E9D2E7C933E833F892D5EDD2E7CD33EC2A
:07022A0033FC5002B2D522A3
:10023100EC30E7100FBF000C0EBE00080DBD00042E
:100241000BEB6014A2D5EB13FCED92E7FD2274FFDA
:10025100FCFDFEFF22E480F8A2D574FF13FC7D8033
:03026100E480EF47
:10026400F920E72824F950037907E4F42402FB1861
:10027400DBFDE624FB5014E9600DE4F618E604F611
:0F028400B40A08E4F6D9F57401F60A22C2D522AD
:10029300ED33EC3392D5FA602AB4FF33EDC2E77B3A
:1002A300FF60067A0279B8E4227A0279C120D50484
:1002B3007A0279BC224E614E002B494E46002D49ED
:1002C3004E4600E47A08F608DAFC7B00740722E85D
:1002D300C0E0ECC0E0EDC0E0EEC0E0EFC0E0EA75E6
:1002E300F010A4CAABF075F04DA42BFBE435F0FC81
:1002F300EA2410FAEB34C5FBEC34D9FCEDC2E7FF7A
:1003030075F056A4F42411C5F0F434C58FF0A42A73
:10031300E5F03BE43CF620E71412055ED0E0FFD0A5
:10032300E0FED0E0FDD0E0FC1204918014F404124E
:10033300055ED0E0FFD0E0FED0E0FDD0E0FC12008F
:1003430026D0E0F8E6FAEDD2E7CD33EC332482FB96
:10035300E4C3CF33CFCE33CECD33CD33DBF37B0703
:1003630075F00A846004F6081B0AE5F0F6088FF0BE
:10037300740AA4FFACF08EF0740AA42CFEACF05007
:10038300010C8DF0740AA42CFDE435F0F608DBDED5
:03039300740722CA
:1003960002024FE86480F8E933E83360110460F044
:1003A600ED33EC337009E8FCE9FDEAFEEBFF2204CD
:1003B60060DED3EB9FEA9EE99DE8C2E78CF0C2F7C8
:1003C60095F0400CE8CCF8E9CDF9EACEFAEBCFFB94
:1003D60012021A85D0F05804700320D5B3E80470D1
:1003E600075002B2D502025992D5EC0460F7E4CC6C
:1003F600C0E0C398F8603B94186008400DD0E0FB5D
:10040600020231E4FBFAC9FC8028E830E406E4C9BC
:10041600FBE4CAFCE830E305E4C9CACBFCE85407B0
:100426006010F8C3E913F9EA13FAEB13FBEC13FCBB
:10043600D8F130F52FC3E49CFCEF9BFFEE9AFEED5E
:1004460099FDD0E0FBEF4E4D4C701222DB03020209
:1004560056EC2CFCEF33FFEE33FEED33FDED30E7CB
:10046600EB020231EF2BFFEE3AFEED39FDD0E0FB59
:1004760050130BBB0003020259ED13FDEE13FEEF02
:0804860013FFEC13FC0202312C
:10048E00020259EC5D046005E85904700302024F44
:10049E0012021A580460F6EC4860F2EC7004FDFE8D
:1004AE00FF22C860DB2481C85009C3986002500641
:1004BE000202569850CAF582E9294B4A7005AB8262
:1004CE0002024575F0007C1A7880C3EF9BEE9AED20
:1004DE0099400DC3EF9BFFEE9AFEED99FDE842F0B9
:1004EE00DC23ACF0D0E0FFD0E0FED0E0FDAB82200C
:1004FE00E7101BEB60BAEC2CFCEF33FFEE33FEED96
:10050E0033FD020231E803F830E705C0F075F00064
:10051E00EF2FFFEE33FEED33FD40B830E7C280AA79
:10052E003F8000004120000042C80000447A0000D5
:10053E00461C400047C35000497424004B18968057
:10054E004CBEBC205A0E1BCA6753C21C749DC5AE4E
:10055E00FB60065407601C232312058CEB54386095
:10056E0009120578120587120026ECF8EDF9EEFA5D
:10057E00EFCB22EB12058780F1543803241C900533
:10058E002EFE93FC0EEE93FD0EEE930ECE93FF22F7
:030000000210C823
:0C10C800787FE4F6D8FD75817B02110FE3
:10059E00C2D530F707B2D563F0FF05F030E70CB2E5
:1005AE00D5F4048463F0FF05F080018430D502F4A5
:0205BE00042215
:1005C000BB010689828A83E0225002E722BBFE0239
:0905D000E32289828A83E493226C
:1005D900BB010CE58229F582E5833AF583E02250D7
:1005E90006E92582F8E622BBFE06E92582F8E22221
:0D05F900E58229F582E5833AF583E493223B
:10060600BB010689828A83F0225002F722BBFE01D3
:02061600F322CD
:10061800BC000BBE0029EF8DF084FFADF022E4CCC6
:10062800F875F008EF2FFFEE33FEEC33FCEE9DEC8F
:10063800984005FCEE9DFE0FD5F0E9E4CEFD22EDD5
:10064800F8F5F0EE8420D21CFEADF075F008EF2F1F
:10065800FFED33FD4007985006D5F0F222C398FD10
:050668000FD5F0EA22AD
:0E066D00C3E49FFFE49EFEE49DFDE49CFC229E
:10067B00FAE6FB0808E6F925F0F618E6CA3AF62280
:10068B00D083D082F8E4937012740193700DA3A3FE
:10069B0093F8740193F5828883E473740293686012
:0606AB00EFA3A3A380DF12
:10146800EFB40A07740D121473740A309811A8990E
:10147800B8130CC2983098FDA899C298B811F630E4
:0714880099FDC299F59922BC
:1006B100E3F5F009E208B5F06D606B80F3E3F5F066
:1006C10009E608B5F060605E80F387F009E608B5D9
:1006D100F054605280F487F009E208B5F0486046B2
:1006E10080F488828C8387F009E0A3B5F038603606
:1006F10080F488828C8387F009E493A3B5F02760A6
:100701002580F388828C83E3F5F009E0A3B5F01628
:10071100601480F388828C83E3F5F009E493A3B538
:10072100F004600280F20207DC808580E7808E8021
:10073100D2803C8015806C807E809B80B5808B80D0
:10074100A1804F8070803A0207E889828A83ECFA9F
:10075100E493F5F0A3C8C582C8CCC583CCE493A3C8
:10076100C8C582C8CCC583CCB5F070606E80E18904
:10077100828A83E493F5F0A3E208B5F05E605C80C1
:10078100F289828A83E0F5F0A3E608B5F04D604B6B
:1007910080F389828A83E0F5F0A3E208B5F03C603A
:1007A1003A80F389828A83E493F5F0A3E608B5F0F1
:1007B1002A602880F2805389828A83ECFAE493F5D7
:1007C100F0A3C8C582C8CCC583CCE0A3C8C582C884
:1007D100CCC583CCB5F004600280E27FFFB5F002A6
:1007E1000F2240027F012289828A83ECFAE0F5F030
:1007F100A3C8C582C8CCC583CCE0A3C8C582C8CC78
:10080100C583CCB5F0D560D380E389828A83ECFAC5
:10081100E0F5F0A3C8C582C8CCC583CCE493A3C8D6
:10082100C582C8CCC583CCB5F0B160AF80E288F099
:10083100ED2402B4040050A3F582EB2402B40400B9
:0B0841005099232345822390072A735F
:10084C00EF4E6012EF60010EEDBB010B89828A83C3
:10085C00F0A3DFFCDEFA2289F05007F709DFFCA9D0
:0C086C00F022BBFEFCF309DFFCA9F02227
:1010D400021416E493A3F8E493A34003F68001F208
:1010E40008DFF48029E493A3F85407240CC8C3331D
:1010F400C4540F4420C8834004F456800146F6DFEC
:10110400E4800B01020408102040809011C7E47EA3
:10111400019360BCA3FF543F30E509541FFEE493E0
:10112400A360010ECF54C025E060A840B8E493A3A7
:10113400FAE493A3F8E493A3C8C582C8CAC583CAD2
:10114400F0A3C8C582C8CAC583CADFE9DEE780BE8A
:0112110000DC
:00000001FF
