:0B021C00C0F9A4B0999282F88090BF56
:0C020F0002080000020A0000020C0000BF
:0A01E600EF1FAC0670011E4C600E06
:0C01F00075100C7511A9D511FDD510FA81
:0301FC0080E82276
:1000FF00EF24FC601114601714601D146023240793
:10010F00702753A01F22E5A0541F4480F5A022E5BD
:10011F00A0541F44A0F5A022E5A0541F44C0F5A091
:0A012F0022E5A0541F44E0F5A022D1
:1001A400AE077F061200FFAF05A80774010880029E
:1001B400C333D8FCF5807F071200FF8E807F027E58
:0801C400001201E67580FF2224
:1001CC00758916D2A9D2ABD2AF758CFF758AFF7523
:0A01DC008B18758DFCD28CD28E2298
:03000B0002000EE2
:0D000E00C0E00509E50970020508D0E032E8
:03001B000201726D
:10017200C0E0C0D0758B18758DFC050BE50B7002C5
:10018200050AC394E8E50A9403401285080C850920
:100192000D750800750900750A00750B00D0D0D0E6
:0201A200E03249
:10013900850C0E850D0F7B05AE0EAF0F7C007D0A79
:100149001200AA741C2DF58274023CF583E493FF16
:10015900EB2402FD1201A4AE0EAF0F7C007D0A1242
:0801690000AA8E0E8F0FDBD0FF
:01017100226B
:1001FF007F041200FF7580FF1201CC12013980FBC2
:0300000002001EDD
:0C001E00787FE4F6D8FD758111020065C2
:1000AA00BC000BBE0029EF8DF084FFADF022E4CC3A
:1000BA00F875F008EF2FFFEE33FEEC33FCEE9DEC03
:1000CA00984005FCEE9DFE0FD5F0E9E4CEFD22ED49
:1000DA00F8F5F0EE8420D21CFEADF075F008EF2F93
:1000EA00FFED33FD4007985006D5F0F222C398FD84
:0500FA000FD5F0EA2221
:10002A000201FFE493A3F8E493A34003F68001F2EC
:10003A0008DFF48029E493A3F85407240CC8C333D7
:10004A00C4540F4420C8834004F456800146F6DFA6
:10005A00E4800B010204081020408090020FE47E25
:10006A00019360BCA3FF543F30E509541FFEE4939B
:10007A00A360010ECF54C025E060A840B8E493A362
:10008A00FAE493A3F8E493A3C8C582C8CAC583CA8D
:10009A00F0A3C8C582C8CAC583CADFE9DEE780BE45
:01021B0000E2
:00000001FF
